:040000006F108011EC
:1000040000000000000000006F0080086F00001E68
:1000140000000000000000000000000000000000DC
:1000240000000000000000000000000000000000CC
:100034006F004006000000006F00E00500000000B3
:100044006F00C02A6F0060056F0040056F00200537
:100054006F0000056F00E0046F00C00400000000A2
:100064006F0060046F0040046F0020046F00000400
:100074006F00801E6F00C003000000006F0060036B
:100084006F0040036F0020036F00601E6F00E002EA
:1000940001A001A001A001A001A001A001A001A054
:1000A40001A001A001A001A001A001A001A001A044
:1000B40001A001A001A001A001A001A0B717004068
:1000C400930670052380D704130780FA2380E7047E
:1000D40003C6B7041376F60DA385C704238007046B
:1000E4001376050225C603C6A700118A0DE22380F4
:1000F400D7042380E70403C7A700136747002385B9
:10010400E7009307004B01000100FD17EDFFB7174F
:100114000040930670052380D704130780FA2380D8
:10012400E7047D892394A700010001000100010078
:10013400238007042380D7042380E70485463727D8
:100144000040A303D780238007048280137605042C
:100154006DDE03C6A700418A0DE22380D704238005
:10016400E70403C7A700136707012385E700930784
:10017400007D01000100FD17EDFFB7170040930655
:1001840070052380D704130780FA7D892380E70450
:10019400136505042394A700010001000100010078
:1001A400238007042380D7042380E7048D46372760
:1001B400004041BF4111814601468145014506C6C3
:1001C4008D24B7170040130770052380E704130735
:1001D40080FA2380E70403C76704136717002383A7
:1001E400E70423800704B24041018280814601462E
:1001F400814501453D24B71700401307700523804E
:10020400E704130780FA2380E7047D572396E70267
:1002140003C76704136717002383E70423800704D5
:1002240001A0BD473305F50201007D1575FD8280EF
:10023400411122C426C206C6AA840144631794004D
:10024400B240224492444101828005041305803E59
:100254004204C13F4180DDB7B717004013070003D4
:100264002388E702854723A2F178730020303747BB
:100274000040834747C09946BD8B638BD702314703
:100284006385E70011476397E702B745004003C65B
:10029400A5C013850126938585C097E0FFDFE7801D
:1002A4004041420541810DE585472383F18A19A028
:1002B400834757C073002030834687C0850793F770
:1002C400F70F2388D1888346A7C0E3E7D7FEE9BFA9
:1002D400814737470040C5BF411106C6452997F0FD
:1002E400FFDFE780408829452D3FCDBF37270040F9
:1002F40083476700858BBDC7411122C68547938517
:10030400417B41662303F70089462E847D167D5583
:1003140093971600AE9703D707004207418301CF96
:1003240003D707006309E60003D707007D174207D8
:1003340041832390E700FD16E39CA6FC8357440009
:10034400C207C18389EB97F0FFDFE78080B583574D
:1003540044006316F5003244410173002030239CAD
:10036400A17AF5B773002030230304809547230353
:10037400F4802302A480828083076480E3CE07FE96
:1003840023030480828083076480E3CE07FE034551
:100394004480828083076480E3CE07FE2302A48026
:1003A4008280411126C44AC24EC006C61377F50B9B
:1003B400AD47AA892E8995446306F70019456D3720
:1003C400653F8D444E854D37FD59FD1463983401C6
:1003D400B240A24412498249410182801355090165
:1003E4001375F50F453F2209CDB7011126CC06CE72
:1003F400B704080051371545853F713769372AC658
:10040400A53F32459377150089EB136515001375E5
:10041400F50FF240E24405618280FD14E9FC0145D8
:10042400CDBF397126DC4ADA4ED852D656D45AD2C8
:100434005ED006DE62CE66CCB7E700E07D5783AAC5
:10044400070022C603AA470023A0E71823A2E7183F
:10045400B7170040130770052380E704130780FAD9
:100464002380E70483C74704930B75FFB684E20730
:1004740093FBFB0F8546AA892E8B328937240040D3
:10048400E187015763FA76016308D50089461307AB
:1004940000026313D5000157D98F93F7F70FB71CE8
:1004A40000402382FC0411472303E4801305F00F6A
:1004B400653D094CD13563697C11B70707003E9B44
:1004C400378707007955637EEB02B3079B00636AA5
:1004D400F702A9476399F90689E48144713D2685A9
:1004E4000DA0DA850945753D05090345F9FFFD149D
:1004F400050B4D3581C49377FB0FFDF7FD3569FD81
:100504007D55B7170040130770052380E7041307D0
:1005140080FA2380E70403C74704418B2382E7045E
:10052400F250B7E700E023A0571123A24711E25489
:1005340032445259C259325AA25A125B825B724CEB
:10054400E24C21618280A5476395F9068569130908
:10055400F00FB3069900B3742B01B6941349F9FF55
:10056400B3749900856B33796901416B9387F9FF03
:10057400B3F7270199E363FC340193D94900C147D8
:10058400E3E637FF99BF0569C1697D19D9B713053A
:10059400800D6388690113050002638479011305E2
:1005A4001008CA85FD3B913521DD4E99B384344151
:1005B400D9B7DA852D45F533CA94E30099F20509D4
:1005C400D933A30FA9FED5BF9387F9FF93F7F70F8C
:1005D400636CFC0803C75C04B707080013770702C1
:1005E40019E3B78707007955E37DFBF033079B00D8
:1005F400E3E9E7F089476390F9048980D549E38EFC
:1006040004ECDA850945713B11090327C9FF9147B9
:100614002320E48003076480E34E07FE2303348130
:10062400FD17EDFBFD14110B81C49377FB0FE9FF5C
:100634006D3B71F5F1B58547E387F9F4DA852D450E
:100644008D339389F4FFE38A04E8353B93F739004B
:1006540091EB832604800327090093074900E39F55
:10066400E6E63E89CE84F1BFB5476396F9001305EB
:10067400900BDD399DB5B1471305B00AE38BF9FE44
:100684009947639EF902DA852D45213B81448D4BC0
:10069400A149D53963967401832704802320F90086
:1006A4008504E39834FF8327048013172B016355D3
:1006B40007002312F90015B52322F90039BD9D471F
:1006C4006391F90281451305B004E1399D44FD5954
:1006D4005D39B30799002380A700FD14E39A34FF22
:1006E400EDBBA1476392F90409338144630D0B0008
:1006F4008547930440046308FB00930400056304E6
:100704008B019304C0031375C507E30895DC1945F1
:10071400A1399D31054589392685AD3909459D396C
:10072400E931E31C05DAE9BBE38909DAF1547DB365
:1007340019CDB7170040130770052380E70413078A
:1007440080FA2380E7042396A7022380070482808B
:1007540019C1814799E982803387F50083460700F0
:100764003307F50085072300D700E397C7FEE5B7F5
:1007740019C1FD5781E98280910503A7C5FF1105C1
:10078400232EE5FE7D16E319F6FEF5B7011122CC02
:100794001384818C1C4006CE26CA4AC881C782971E
:1007A40023A4018C5C4089CB03D5018C51375C4078
:1007B400829703D5218CAD3F1C406398071283C7F1
:1007C400516B858B63810710A38A016A83C7716BA0
:1007D4000947639FE70AD52197F000E0E780606549
:1007E4009387C18B984303C6514BBE8483C7414B47
:1007F40093961700BA9683D606006380060E83C7C5
:10080400414B63F4C70686073E97835507002310C0
:10081400070003D5018C2EC6213F9387818D9C430D
:1008240003C5414B13172500BA979C43B2458297E1
:100834002A8903D5218CED3D83C7414B13971700BB
:100844009C40BA9703D707003369E9002390270136
:100854009387414B83C70700850793F7F70F238AD4
:10086400F14A03C7514B63E4E700238A014A1C4061
:10087400ADEF03D5018C6D3D97F0FFDFE78040BEFF
:100884006244F240D244424903D5218C05614DB5FE
:100894000D476398E700152197C000E0E7806035B5
:1008A40081B715476398E7000929972001E0E7809D
:1008B40060873DB71D47E395E7F2012197A000E06B
:1008C400E780E0FF31BF83C7C16F918BE38A07F0F4
:1008D400971001E0E780805C21B7850793F7F70F55
:1008E400238AF14AE3E4C7F019BFF2406244D244D8
:1008F4004249056182809167B7C6004093873730CB
:10090400411123A6F620010001009387414B984F23
:100914009387019C9C433A07F053B7071000FD17D7
:10092400918F9983D98F3EC6B1679387373023A6B9
:10093400F6203245410182804111B7170040985F8B
:100944003AC6945F3247E39CE6FE32454101828019
:100954009387819A9C43411122C406C62A84DDEF01
:100964004165130525F597C000E0E780E0F55DC516
:100974008347C5002316F5008327840FD9E7232C6A
:10098400A40E232EA40E8547231AF4022320050067
:100994008347B40054412315F5000347A4002304FE
:1009A400E5001387016B184F1385170215811C434B
:1009B4007D151375F50F9CC25C43938606021307DD
:1009C400070223A2F6FE832787FE23A4F6FE8327CD
:1009D400C7FE23A6F6FE832707FF23A8F6FE832778
:1009E40047FF23AAF6FE832787FF23ACF6FE83275F
:1009F400C7FF23AEF6FE45FD83D7816085072394A8
:100A0400F160B2402244410182808327C40F88C32D
:100A140083574403232EA40E8507BDB78347840060
:100A240023080400054593C747002304F400D1BFFD
:100A34008347E50193F7E70F89CB014582800145A0
:100A4400B24022449244410182808347F501F5F784
:100A5400411106C622C426C2034705018347850007
:100A640019C70346650283C6D1486367D60093F667
:100A74000701F1D6014409CB034405150347F514D6
:100A8400C18B2204598C81CB834745150347351507
:100A9400A207D98F3E9445D493870160B44B9387C2
:100AA400814703864701FD54B705C0A803A706087C
:100AB40083D74607635B0602B307F74063F39700E7
:100AC400BE849442E5F69387C18D9C438297E3E804
:100AD400A4F61304B4141580130404023385A4404B
:100AE4003335850013451500A1BFE377F7FC2E9736
:100AF400E1B7411122C61384019B184026C44AC29F
:100B04001C5F9384C19A9983858BA9CF9307F0FBCB
:100B14001CDF83C7016B93F707041389016B99C723
:100B24009387C18D9C43829723A0A16C8547A38A98
:100B3400F16A9387019C9C430327C900B8D39307A8
:100B440000F8238AF16A8307690063DD07009C408B
:100B5400130700FC238BE16A9C439983858B99E3FB
:100B6400238B016A9C40D8430583058B19C7D8435E
:100B7400759BD8C3D843799BD8C318401C5F858321
:100B8400858BC9CBF5571CDF010001000100010072
:100B94000100010001000100010001000100010049
:100BA4000100010001000100010001000100010039
:100BB4000100010001000100010001000100010029
:100BC4000100010001000100010001000100010019
:100BD4000100010001000100010001000100010009
:100BE40001000100010001000100010001000100F9
:100BF40001000100010001000100010001000100E9
:100C040001000100010001009387019C9C4313072C
:100C14005004B8CB18401C5F9183858B99CBBD578A
:100C24001CDF9387019C9C4323A807048547238AE0
:100C3400F16A3244A244124941017300203037F76B
:100C440000E0832707D1CD9B2328F7D09387016B3E
:100C540003C74700058B01EF03C73700058B01EB82
:100C640003C72700058B01E773005010D5B78280B6
:100C74009387019C9C43094798C3D1B79387019CF0
:100C84009C4337C700401306C003A8CB9306200338
:100C94009385016B83278720C18393F7F7036369E7
:100CA400F60083278720C18393F7F70363E6F600F2
:100CB40083C74500858BF9DF828037F700E08327FF
:100CC40007D1CD9B2328F7D09387016B03C7470037
:100CD400058B01EF03C70700058B01EB03C7170062
:100CE400058B01E773005010D5B782809387019C70
:100CF4009C4337C700404146A8CBE5469385016B2A
:100D040083278720C18393F7F703637DF600832746
:100D14008720C18393F7F70363E6F60083C7450092
:100D2400858BF9DF8280034715001507719B0D073A
:100D34002A9709C68347F7FF2300F6008347070075
:100D4400054593F60701A9E68DC103C6616B9306B9
:100D5400000C0945631ED60293F6F706054663990F
:100D6400C602E207E18763C507028347E7FF03473B
:100D7400D7FFA20793F70770D98F13970701418311
:100D84009376074099C613670780239CE19A01452F
:100D94008280239CF19AE5BF1386019C08429386C6
:100DA400016B184593170701C18313781720BE857B
:100DB40063070806137707206303071003C7260099
:100DC400136717002389E16A1307001938D1130741
:100DD40000F8238AE16A1387019B0843370800104F
:100DE4005855719B1367270058D51841336707017D
:100DF40018C11387C19B18431DC3032847008328C8
:100E0400870003250800336515012320A800032863
:100E1400C700584B03250800498F2320E80013F727
:100E2400251021C393F50510D5C503C70600136724
:100E340017002388E16A238A016AA38A016A138757
:100E4400C19B184309CF084B032847010C41B3E564
:100E540005010CC1084318470C414D8F18C1239C50
:100E6400016A83C6460093C7F7FFC207E206E1861C
:100E7400C183184263DF06009396170163D3060605
:100E84003053894663E7C6008546238AD16A3453C2
:100E9400FDFE938681478386460163DD06009396B3
:100EA4000701C18663D306047053894663E4C60010
:100EB4007453FDFE1447F58F1CC77300203003C71D
:100EC400160013671700A388E16A238A016A239C2A
:100ED400016A05B703C7360013671700A389E16ADF
:100EE40099BF8546238AD16A6DB754471396060184
:100EF400635D0600B7061000FD1674D39386414B5C
:100F0400944E850623A6D14C75B7A166D58F5DB7DF
:100F14001387C16C8346B70183C7D16FB69793F724
:100F2400F70FFD4663EAF604504BA386F16C83C7C2
:100F3400D16C05473317F700A38EF16E718F29E743
:100F4400814613050002B355E600858981C58506EF
:100F540093F6F60F0507E318A7FEB3F6D702014789
:100F6400814713050002B355F600858999C96317B3
:100F7400D700A386F16C828081177DB705076207CD
:100F840061878507E391A7FE82809387419C9843FC
:100F9400B75702009387079F8326070913965600C5
:100FA4006358060083260709139666006344060007
:100FB400FD17FDF38280A16785072A876397F500F3
:100FC40083C701970145D5E38280014555C3CDC14F
:100FD400B307E0408D8BBA97C207C1831307400360
:100FE4006369F702138701A40843138781A3144399
:100FF4006394A60213878147185B014535CB4111E1
:10100400C20706C60545DD8D0297B2400145410180
:1010140082801387C1A3C9BF0357650029E703571B
:1010240045006362F704B306F74021466370D602B5
:101034001041938687001D8FAA96611790C2239250
:10104400E6002393060014C12312F500A1672313BD
:10105400B50085076397F50083C70197FD172388BB
:10106400F19621058280084161B7014535F38280FC
:10107400828001CD938701A403A80700938781A3ED
:101084008C430147C28763E3B70082809443636F54
:10109400F50663EDA60613868700E368C5FE03D54F
:1010A4006700216605066317C50003C60197050698
:1010B4002388C19623930700638407031386C1A37F
:1010C4001042630FF6000356670019EA83D74700FE
:1010D40014C383564700B697A1072312F700BA87B3
:1010E4009843E304B7FA9386C1A39442E30FD7F875
:1010F40083566700D9FA83D647000356470018433E
:10110400A106B2962392D70098C382803E87B68701
:041114009DBF00007B
:10111800974100209381813617710020130101EE59
:1011280013054000972500209385456D173600204C
:101138001306067E63FAC5008322050023A0550026
:1011480011059105E3EAC5FE17B501001305055C15
:10115800973500209385C57B1386818663FAC50081
:101168008322050023A0550011059105E3EAC5FE79
:1011780013858186976500209385C55F6377B500E1
:10118800232005001105E36DB5FE9302800873A0C6
:101198000230972200209382626693E212007390D5
:1011A80052309712000093822270739012347300A9
:1011B80020303D432A876373C3029377F700BDEF5E
:1011C800ADE5937606FF3D8ABA960CC34CC30CC7AF
:1011D8004CC74107E36BD7FE11E28280B306C340D8
:1011E8008A069702000096966780A6002307B70034
:1011F800A306B7002306B700A305B7002305B70069
:10120800A304B7002304B700A303B7002303B70060
:10121800A302B7002302B700A301B7002301B70058
:10122800A300B7002300B700828093F5F50F9396CB
:101238008500D58D93960501D58D61B793962700C6
:101248009702000096968682E78086FA9680C117F4
:101258001D8F3E96E374C3F8A5B7B717004083C83F
:101268008705194703C89705A38C0704238CE7044F
:1012780003C7970593F8F80F1378F80F13679702C9
:10128800A38CE7040547238DE704371700408347FD
:10129800A7059305A705858BFDFB0565C14637178F
:1012A8000040054E1303F5FF2380C50103C6050062
:1012B800058A6DFE0356C705FD16C2061346F6FFDE
:1012C80033766600C182B297E5F283469705A10797
:1012D800918393F6760F13050580A30CD7041D8D13
:1012E800230C17054205A30C070541858280B71713
:1012F800004003C777051377E70FA38BE7041307AD
:1013080000F8A38DE7043D47238CE7041307500337
:10131800A38CE704828041112A83014E930E407EFC
:10132800130F0019930F400663EB6E0A9308001918
:1013380013034006B3781503854E0D4FA14F337341
:1013480065020D891335150063E5BE0C1308F6FF19
:10135800794672984208135808013307C70213D612
:101368001700BE0732976146B3F6C60213068070AF
:10137800B386C6023697A166F58F42075D8FB71709
:10138800004083C6F70293F60608A307D100034678
:10139800F10083C6F70293F60608E394C6FE834677
:1013A800F10093F6F60FF1DE930670052380D7045B
:1013B800930680FA2380D70423AA070383C617035A
:1013C80093E60608A388D702D8DB03C71703136779
:1013D8000704A388E70223800704410182807D1364
:1013E8003368E3039308E016630E08003368F303D9
:1013F8009308D016630808009378330093B8180050
:101408009388D81633081E01131E0801135E0E01B7
:1014180021BF6393E5030548638608000148630319
:1014280003002A8871087298FD15131E0801C20569
:10143800135E0E01C18109BF13F8150063F4BF00E4
:101448007908D5B713381800E5BF914763EEB7029E
:1014580017B70100130747B38A05BA959C41BA9795
:101468008287B717004003A7470B1345F5FF698F1D
:1014780023AAE70A03A7070B698F23A8E70A03A78C
:10148800070A798D23A0A70A8280B717004083A690
:10149800470B1347F5FFF98E23AAD70A83A6070B34
:1014A800558D23A8A70A83A6070A758F23A0E70AE4
:1014B8008280B717004003A7470B498F23AAE70A82
:1014C80003A7070B1345F5FF45BFB717004083A6D1
:1014D800470B1347F5FF758F23AAE70A03A7070AE7
:1014E800598D4DB7B717004003A7470B498FEDB784
:1014F800914763EEB70217B70100130727AA8A05B9
:10150800BA959C41BA978287B717004003A7470D41
:101518001345F5FF698F23AAE70C03A7070D698F09
:1015280023A8E70C03A7070C798D23A0A70C8280BA
:10153800B717004083A6470D1347F5FFF98E23AA76
:10154800D70C83A6070D558D23A8A70C83A6070CD7
:10155800758F23A0E70C8280B717004003A7470DBB
:10156800498F23AAE70C03A7070D1345F5FF45BFCD
:10157800B717004083A6470D1347F5FF758F23AAB9
:10158800E70C03A7070C598D4DB7B717004003A701
:10159800470D498FEDB7B717004003D587004205BF
:1015A80041819377050491EB9377F5013755E8016D
:1015B800130505803345F50282809377050C1307E0
:1015C80000046397E7009377F50137459C1CCDB776
:1015D8002165130505D0828037E700E01C4354439A
:1015E800A183E206D58F1CC1FD572320F7182322BB
:1015F800F718828013178500B7E700E023A0E710EB
:10160800618123A2A7108280B7F700E0C8439C47F6
:101618008280814737370040A14663C4C7003285BE
:1016280082800345B740E38EA6FE3385F500034567
:10163800050085072304A740CDB7B7270040C8C7D2
:1016480009472380E70011472380E7008280411182
:1016580022C406C62A8481372947B307E502B24067
:101668008D83B3D7870222449507B3D7E70237376C
:101678000040C207C1832316F7404101828071658B
:1016880041111305052006C6D937B737004013079F
:1016980070F82381E7400D47A381E7401307000452
:1016A800A380E74005472387E740B2404101828095
:1016B800411122C406C62A84F93D2947B307E50229
:1016C800B2408D83B3D7870222449507B3D7E70288
:1016D80037470040C207C1832316F7C04101828003
:1016E800716541111305052006C6D937B747004073
:1016F800130770F82381E7C00D47A381E7C01307DC
:101708000004A380E7C005472387E7C0B240410132
:101718008280B747004003C717C019C9D98DA38075
:10172800B7C003C707C0136787002380E7C082805C
:1017380093C5F5FFF98DA380B7C08280CC414111D4
:1017480006C6328503C6150083C5050022064D8EE0
:1017580042068D654186138875A2630C060F63489F
:10176800C804138845A26306060B634AC80093851C
:1017780035A26309B60623900600294679A0138886
:1017880055A26308060B938565A2E316B6FEC1450C
:101798001D4663ECE5064546198E63F3C7003E8691
:1017A8002390C60097B501009385858189A8138881
:1017B80095A26300060F634E060B1388A5A2630A61
:1017C800060F938505A5E318B6FA99451D4663EEFD
:1017D800E502198E63F3C7003E862390C600938501
:1017E800818031A89D451D4663E1E5022146198E99
:1017F80063F3C7003E862390C60093858186BA9519
:1018080097200020E78080740146B240328541016C
:101818008280AD451D46E3EAE5FE3146198E63F345
:10182800C7003E862390C60097A501009385057DD5
:10183800F9B7B1451D46E3EAE5FC3546198E63F371
:10184800C7003E862390C60097A501009385057CB6
:101858007DB7C1451D46E3EAE5FA4546198E63F3AF
:10186800C7003E862390C60097A50100938585761C
:1018780079B7C1451D46E3EAE5F84546198E63F395
:10188800C7003E862390C60097A501009385057979
:10189800BDB7C1451D46E3EAE5F64546198E63F333
:1018A800C7003E862390C60097A501009385C5739F
:1018B800B9B7B5451D46E3EAE5F43946198E63F331
:1018C800C7003E862390C60097A501009385456E04
:1018D8003DB7973600209386A6164146CD45173565
:1018E80000201305E5026F706016411193962500DC
:1018F800AA852D4506C697200020E7804032B240D1
:10190800014541018280411122C426C24AC02A846D
:101918002E89B284AA85930600200146254506C66D
:1019280097200020E780A02F931629002686A285FD
:10193800294597200020E780802EB2402244924417
:101948000249014541018280011122CC06CE37149B
:10195800004026CA4AC84EC652C483447405034A86
:10196800B405834984050349940551328347A40586
:1019780093F4F40F137AFA0F93E71700230DF40486
:1019880093F9F90F1379F90FB717004003C7A705A3
:10199800058B6DFF03D5C705A38D4705238C370538
:1019A800A38C2705A38B9704F2406244D244424992
:1019B800B249224A0561828041119397050122C4E8
:1019C80006C6C1872E8463DD0700EF00B07F19C10A
:1019D800EF00B0782165218DB24022444101828018
:1019E80093F7150013C51500E5FB9397250163DFF1
:1019F8000700EF30713337F60200130606E08965F9
:101A080003C53178EF1060550965F1B79397150153
:101A18000145E3D307FC17A501001305E565EF9021
:101A2800413D13060064916503C53178EF10E0521B
:101A3800116555B71D71494697A501009385455F06
:101A480017B501001305059C86CEEF10601801E953
:101A580017A501001305055FEF90A13901A037F71D
:101A680000E0F9575CC7FD571CCB8566B7E700E077
:101A780023A0D7101306701010C3B8434146B0C353
:101A880023A0D718B8C3010001001306C00381457D
:101A98004808EF10C00D974700209387271B3ECAC0
:101AA800896793870780231CF100ED47A301F102A2
:101AB800930750102312F1028146D1470146814510
:101AC80021452303F10297200020E7804015A167F4
:101AD800938707E03ECE97070000938747E1BEC48F
:101AE80097070000938767E2BEC6B5472308F1024F
:101AF800B7F5070097070000938747B13EDA81469C
:101B080097070000938787E47000E10519453EDEDA
:101B180097200020E780A010580881479946700058
:101B28003E960346060085070507A30AC700E39803
:101B3800D7FED24791C70357810185676373F700C2
:101B480001A04808EF10A078AA8501C917A50100CF
:101B580013058550EF90411801A0F6402561828059
:101B6800411117050000130565E506C622C4EF10EC
:101B78004073138431782300A40029280345040006
:101B88002244B24037F60200130606E08965410197
:101B98006F10A03C411106C6B71700401307700527
:101BA8002380E704130780FA2380E70403C7F702BA
:101BB8001305407E814613677700A387E7022380D9
:101BC80007040147814705468545EFF0CFF4B24049
:101BD800014541016F10F017797126D206D622D43B
:101BE8004AD04ECE52CC03C88500A14413780802CF
:101BF8006311080683C8050009482E848144639A46
:101C0800080503A84500AA89328A834718000348B3
:101C180008003689A207B3E70701C2070D68C18724
:101C2800130828906380070581440357A400973759
:101C3800002083D747E7631EF700938701879C43FB
:101C480089CB0D473AC22316210152C44C004E8558
:101C58008297B2502254268502599254F249624A18
:101C6800456182808547EF508028AA845DFD93876F
:101C78000187984355DB83471A0083460A004C00C6
:101C8800A207D58FB337F00085073EC24E8502976D
:101C980069BF011117A501001305453E22CC26CACC
:101CA8002EC606CEB28436C4EF90A114B2452144A4
:101CB80083C78500C18B9DEF03C605008947014492
:101CC800A2466319F602D841834717000347070065
:101CD800A207D98FC2070D67C18713072790639B97
:101CE800E700CC452390C6002685094697200020AA
:101CF800E780C0252285F2406244D2440561828093
:101D080041677917630CE502411122C406C685476D
:101D18002A84639AF50022852244B240938501A55E
:101D280041016F60905D89476396F5008545EF80B6
:101D3800707575D1B2402244410182808280411180
:101D480026C2AA844165938501A57D1506C622C4CD
:101D5800EF60B05A170500001305C5FAEF80506A06
:101D680097360020938686D441469945173500203A
:101D78001305C5CDEF60904D2A8419C517A501003C
:101D880013058530EF90E1062285B240224423A84E
:101D980091869244410182804111938501A506C62E
:101DA800EF50A00FB2407D15133515004101828018
:101DB800411122C42E84938501A526C206C6AA8491
:101DC800EF50A00D058915C197370020938707C8E4
:101DD80083D7A702A285B2402310F40022442685A7
:101DE8009244014641016F507067B24022449244C8
:101DF80049454101828083572500035505003385F5
:101E0800A740420541818280AA8705C21307F6FFD1
:101E1800B376C700054599EA23A00700CCC32394ED
:101E2800C7002395E700014582800545828023206D
:101E380005008280AA871145B5C72DC683D607003D
:101E480003D787000D45369783D62700158F42079D
:101E5800418329CB0145B9C5835606006373D70072
:101E6800BA86C206C182014713150701418163661C
:101E7800D5002310D600014582803385E5008348CC
:101E8800050003D8A70003D5270005073378050107
:101E9800C84342952300150103D527000505239162
:101EA800A700D9B782802A8729CD83560500835792
:101EB800A500B697835625008507958FC207C1836D
:101EC800BE866373F600B286C206C1820D459DCBFD
:101ED80081476394D7000145828003562700035544
:101EE800A70003C805008507718D5043C207C18349
:101EF8002A96230006010356270005062311C7006A
:101F0800C9BF11458280AA871145B1CF29CE83D692
:101F1800070003D72700158F835606004207418321
:101F28006373D700BA86C206C18209450DCF01473F
:101F38006366D7002310D6000145828003D50700C9
:101F480003D8A70033780501C84342950348050024
:101F58003385E50005072300050103D507000505BE
:101F68002390A700F1B7828029C50357050083573E
:101F78002500998F3E87C207C1836373F6003287B5
:101F880042074183814763E4E70001458280835625
:101F980005000356A5008507758E5441B29683C681
:101FA80006002380D5008356050085062310D5003A
:101FB800D9BF114582802A86B305B04017A5010014
:101FC8001305C51D6F80515183D7C1896390A7023E
:101FD800239FB1882390C18A2391D18A2E8617A581
:101FE800010013052518BE856F80114F17A5010044
:101FF8001305C5186F80F15F03574500011106CE20
:1020080083D7C1896315F702C167F91723AEF18831
:1020180023A0018A85471306F10085451305503032
:10202800A307F100EF808114F2400561828017A5B3
:1020380001001305E508EF80D15BFDB741119397C7
:10204800050122C406C626C24AC0C1872E8463D1B0
:10205800070203C55181EF00F01619C1EF00F00F18
:102068002165218DB2402244924402494101828077
:1020780093F7150091CF173600201306E6A3938532
:10208800818803C55181EF70516713451400D9BF8A
:1020980093F7850099CF83C751811307400681467E
:1020A8005146A14503D5C189EF70915E134584005F
:1020B80055BF93F705010145D5D7938701829C4306
:1020C80085446389970081C70D496375F9101345E5
:1020D800040149BF03D5C189C13103D7C18909E9C1
:1020E800C167F917E315F7FE138501268933C5B7CC
:1020F8003A85EF10701975152392A18A1385012668
:10210800DD3983D7418A636CF50813850126E531EB
:10211800AA8517A50100130525FBEF80F13B13865F
:10212800418A9385017A13850126F13B1375F50FD2
:1021380023A4018A49FD03D6418A01478146ED451A
:1021480003D5C189239BC188EF40301123ACA188F6
:10215800630E050C03D661899385017A97200020C8
:10216800E780C0DE93854189014603D5C18989315D
:10217800AA8529CD17A50100130505F7EF80D135EC
:102188008D4723A0F182ED4513854189EF40B024A6
:102198000946C14503C55181EF00305C0DBF9384EA
:1021A800818A9840A947E3ECE7F61146C14503C583
:1021B8005181EF00905A9C4017A501001305C5F105
:1021C800850723A4F18AEF80D14211B7854723A060
:1021D800F1827DBF03D6418A01478146ED4503D58B
:1021E800C189239BC188EF40500723ACA1881DCD2E
:1021F80003D661899385017A97200020E78000D56E
:1022080093854189014603D5C1895D36AA8511C9DF
:1022180017A50100130505EEEF80112C23A02183DB
:102228009DB723A091822392018A9DB7894745B71C
:102238007D15954763E2A71217A701001307C7E6A4
:102248000A053A951C41411122C406C6BA972E8444
:10225800828717A501001305E5F52244B240410124
:102268006F80313903C7250099476314F7002E851D
:10227800613317A501001305E5F4C5B703C72500A9
:1022880095476317F70CC16703D7C189F91703D5B9
:10229800A500630FF700EF80611217A50100130571
:1022A80065F3EF80113517A50100130525F575B7FE
:1022B800239EA18883D7E500096613060690239F0D
:1022C800F18883D7050103C551812390F18A83D70B
:1022D8002501A1452391F18AEF0030480356E40017
:1022E8008355A40017A50100130505F0EF80D11E42
:1022F8005DBF17A50100130525F185B783C5250026
:1023080091476397F50017A50100130565F1B1B76B
:102318009947639FF5002285C5318345640017A559
:1023280001001305A5F12244B24041016F80D11A82
:102338009547639AF50083471400F1F717A5010044
:10234800130585F119BF17A50100130565F1E1BF54
:10235800B24022444101828082800111680006CE89
:10236800EFF08FA783C7618A89CB0946C14503C5AA
:102378005181EF00903E2383018A3245EFF08FA709
:10238800B745004083C7B5C01D47636DF70083C7D5
:10239800B5C02146938585C01D8E420641821385AE
:1023A800C146D936F24005618280411113060020EA
:1023B8009385C1261385C14606C622C4B134056675
:1023C8001306068097350020938545B113850126AD
:1023D800253C371400408327840A8D4513050002E5
:1023E80093E707022324F40AEFF02F868327840A51
:1023F8008545414593E707012324F40AEFF0EF846C
:10240800EFF00FAE95450545EFF0AFB0B24022446E
:10241800B7E700E0114723A2E710410182800111CC
:102428002317B1001306E100AA851385C14606CE1D
:10243800EFF05FA0F24005618280011126CA844155
:1024480006CE22CC89476384F4028D476387F40261
:1024580085476399F400AA8517A50100130545CAA5
:10246800EF809107F2406244D24405618280AA85D8
:1024780017A50100130505CBE5B72E8483D5850084
:1024880017A50100130545CCEF8011051306E100DF
:1024980097A501009385C5CC1385012623179100C4
:1024A800EFF05F990946C14503C55181EF00F02A55
:1024B800835584004840A53775B7011117050000FA
:1024C800130505B806CE22CC26CAEF00905D93848A
:1024D8005181994705442380A4002315F100130670
:1024E80091009307803E8545130550302316F1006F
:1024F800A3048100EF709147172600201306065E9B
:10250800E54513057030EF707146138681819D454E
:1025180013056030EF7091451306A1008945130536
:102528001031EF70B1447000894513052031EF7008
:10253800F143172600201306E658D5450145EF401C
:10254800E00D9305000A0D45EF2060649305000A2D
:102558001145EF20C0637000914513057040A30337
:10256800810023048100A304810002C62305010021
:10257800EF60511D13067100854513050040EF609B
:10258800711C3000854513051040EF60B11B130620
:10259800A100854513052040EF60D11A130691006C
:1025A800854513055040EF60F1197D55EF406014E3
:1025B8007D55EF606051EFF0CFB1170500001305AE
:1025C80005E8EFF0CFF7C1671387C189F9171CC376
:1025D8002322070013858187EF50F13203C50400D9
:1025E8008545B125F2406244D2440561828083C7A3
:1025F800E18A1307E0076382E70293060008638C09
:10260800D702B716004083A7860C21663145D18FC3
:1026180023A4F60C2387E18A82803717004083279A
:10262800C70CA1661145D58F2326F70C930700F830
:102638002387F18A828041652387018A7D158280FC
:1026480083C7F18A130770086384E70213079008A9
:10265800638EE702371700408327870CA166114570
:10266800D58F2324F70C930770F8A387F18A82800B
:10267800371700408327C70CA1663145D58F23261D
:10268800F70C930790F8A387F18A82804165A387A6
:10269800018A7D158280411106C683C7018B130705
:1026A800600A638AE7186366F704130750096388AA
:1026B800E70C636EF70013072009638FE708930799
:1026C80020F92388F18A0545B24041018280130729
:1026D800100A6388E7101307500AE392E7FE8D3764
:1026E800C167FD17E312F5FE9387418B9C43FD17E5
:1026F80029A21307100B6382E7146365F704130715
:10270800800AE39EE7FA9387018898438547E31890
:10271800F7FA8D45216523A0018823A4017CEFE009
:102728003FDD1305800C97100020E780402F3717F6
:1027380000408327C70CA166D58F2326F70C930783
:1027480010FB59A81307500B6381E7141307600B9C
:10275800E397E7F6693D1DAA9387418813870188A7
:102768009C431843BA979DEB371700408327870C83
:10277800A166B58F2324F70C930750F999B793876F
:10278800817C9C431387170023A4E17C1307401F17
:102798006376F70085452165EFE09FD593874188EB
:1027A80098438547E311F7F68D45216523A20188F3
:1027B80023A4017CEFE0DFD31305800C97100020E1
:1027C800E780E025371700408327C70CA166D58F1F
:1027D8002326F70C930710FA2388F18A1305E006DD
:1027E800E5B5B7576311938787A023A2F17C854786
:1027F80017570020232CF7F6F94723AAF18A938765
:10280800418B9843930780FA634E0704975700203B
:102818009387C7F59C43B397E7001387417C184318
:10282800F98F99E7930750FA2388F18A014569BD22
:10283800930760FAD5BF653B65B5B75763119387B2
:10284800879023A2F17C8547175700202320F7F2B1
:10285800F94723AAF18A9387418B98436358070065
:10286800930780FB2388F18A2945B9BD9757002033
:102878009387C7EF9C43B397E7001387417C1843BE
:10288800F98F91EF930750FB45B75D3BC167FD1783
:10289800E31CF5E29387418B9C43FD175DBF9307CB
:1028A80060FB59B741111305800406C69710002034
:1028B800E780800085452165EFE09FC3EFE03FA3F7
:1028C800EFE0BF992396A18A9387417B2392070063
:1028D8000565239107001305057723900700EFE0AE
:1028E800DFD537270040834727008D451305002093
:1028F80093E717002301F700B7E700E0416723A03B
:10290800E710371700408327870A93E70720232417
:10291800F70AEFE09FB3EFE09FD617A50100130574
:1029280065AEEF80014DEFF0EF90EFF06FA3EF7021
:10293800312B6136EFF07FA797100020E7808019D0
:1029480023AC05FE1C4181E70CC18280BA8703A72E
:1029580087FF6DFF23ACB7FE82801DC18346E5FF6C
:102968001307F00F9147639EE600411106C69720B2
:102978000020E780C0EFB24081473E854101828058
:1029880095473E85828001E9014582800145B24034
:10299800224441018280411122C42A842105420532
:1029A8009305D004418106C697200020E78060E0A7
:1029B80071DDFD5723200500231285002303F50050
:1029C8002105F1B71387818B1C43411122C426C20C
:1029D8004AC006C601440149BA8491E7A165EF00DF
:1029E800006E0DC401A803C7E7FF6318A7021DC83E
:1029F800A165352C9840832784FF6317E40223AC34
:102A0800F18AFD57232C04FE230FF4FE2285B240E1
:102A18002244924402494101828011E03E8983A701
:102A280087FF65BF3E84E5BF232CF9FED9BFB9C532
:102A3800411122C406C62A8483C7514B2E85636878
:102A4800F400213F0D45B24022444101828083A712
:102A580085FF99E703C7E5FF9307F00F6305F700C4
:102A6800ED3D1545CDB7238F85FE1385818BC93D77
:102A780022852244B240A165410155AA15458280AC
:102A880023AC018A82809387418D9C4399E33E85DC
:102A9800828003D727006316B70003C70700E3083F
:102AA800A7FEDC47E5B74111939705014AC006C662
:102AB80022C426C2C1872E8963DE0700213711C1CF
:102AC800693D21653345A900B24022449244024938
:102AD80041018280AA860145E5D901443D47B357A3
:102AE8008940858B95CB9387418C8443BD4791E280
:102AF8008147A2978E070545BE94331585001314A8
:102B080005019C40C8404180829723A0040023A26D
:102B18000400334524014DBF0504E312E4FC0144DD
:102B2800CDBF938781479C53411122C406C61384A5
:102B3800418295C7829723A2A1820840B747030024
:102B48009387D73F3305F502B7A72600938737EC5D
:102B5800B24022443E9523A2A182410182809387FC
:102B6800414B18409C4BBA9723A2F182F9B72A9699
:102B780009E582800505A30FB5FEE31DC5FED5BF97
:102B880081473307F5000307070019E33E85828074
:102B98008507C5BF01112E8626CAAA84131506010A
:102BA8009305F004418122CC06CE32C6972000203E
:102BB800E78020C02A8419C53246A68597100020D0
:102BC800E780C0382285F2406244D24405618280A1
:102BD80081476314F600054582803307F5008507B1
:102BE800B386F5000347070083C6F6FFE383E6FED6
:102BF800014582809307F6FFBE952A966313C500A8
:102C08008280FD1583C715000505A30FF5FEFDB7E6
:102C1800814711E9014582803307F5000347070022
:102C2800E31AB7FE8507E319F6FE0545828083C7D8
:102C3800514B637FF5001387C18B93171500084329
:102C48003E9583570500DD8D2310B5000145828030
:102C58000D45828079714ECE06D622D426D24AD02E
:102C680052CC56CA5AC883C7B16B9389016BB5C396
:102C780083C7716BB9EFA38D016A03C4A16B894740
:102C8800631EF40893870160B8433E848346770047
:102C9800A9C203465700B755550037C5898E938595
:102CA8005555130565EDEF20416303C7716B930715
:102CB800D7FF93F7D70F91E7238DE16A8547A38D57
:102CC800F16A8947A38BF16A3C40130710FA238302
:102CD800E7009387018D9C4385CB82972A8A0DC58F
:102CE8009384414B9C4813898147814AAA9723A220
:102CF800F14CFD5723A0F14C9387418D804351E857
:102D080083274902639A070EB250225492540259FB
:102D1800F249624AD24A424B456182808D47631A22
:102D2800F40293840160BC4403C777005DD303C6F3
:102D38005700B755550037C5898E938555551305E6
:102D480065EDEF208159A38B816ABC44130710FB02
:102D5800BDBF9547E31FF4F61387816E834767016C
:102D6800918BA5DB83C7C16C858B03C6B16E83C607
:102D7800A16E89CF484319C9834515000905EF207D
:102D8800311921D98547A38DF16AA1B7814501453C
:102D9800FDB7184481476374EA00B3074741032726
:102DA80049021CC411C7D84463F4E70023A0F14CBE
:102DB80085EB8355240099ED5C44639C0A0223AAA1
:102DC800F18C032BC400228597200020E78020AADD
:102DD8005A8435B703450400993D5C4081CB1CC437
:102DE80083572400F1DBA28A404411BF1C44E9D771
:102DF800C5BF23A6FA00F1B79387C18B904383C65A
:102E0800514B814713F7F70F636FD70683C77900D4
:102E18000D47F91793F7F70FE378F7EE83C7C16FFC
:102E2800918BE39307EE6800EFC070007D57630451
:102E3800E50CB24703C4B148E378F4ECC44483C753
:102E4800C1486380E406858BB9C7D147B384F402CF
:102E5800E37C94EA97100020E780C02DB24763F323
:102E6800F400A68703C4B148818F3384A700830781
:102E7800490163CE0702B707C0A8636AF402B7071F
:102E880040573E942DA08507139717003297035794
:102E9800E7FF2DDB95BD93079002B384F40285808C
:102EA80045BFE207E18763D007043304854003D5B3
:102EB800218C97100020E78060078327490222852C
:102EC80019E03705C0A882971375F50FE31E05E2D0
:102ED80083A78901E38A07E2EF202134EF204176B6
:102EE800EF20812815B5E37285FCB707C0A83384A5
:102EF80087402A946DBFDC44E388A7E00347490173
:102F0800058B0DC351443384870283C7B148E3FD61
:102F180087DE97100020E780E02183C7B1481D8C29
:102F28002A94B1B713049002338487020580F1BF55
:102F380083C7514B6371F5021387C18B9317150033
:102F4800084393C5F5FF3E9583570500FD8D231073
:102F5800B500014582800D45828083C7514B63646B
:102F6800F50001458280411122C426C24AC006C626
:102F78002A842E89B284EFF01FB101C504C5054526
:102F88001DA0936504F0C205C1814145972000202A
:102F9800E780208219ED938781479C5B81C7A285D2
:102FA800114582970145B2402244924402494101A9
:102FB80082809387418D9C438DE323AAA18C85470A
:102FC8002326050004C52311250123008500A3003D
:102FD800F5002322050065B7BA87D84775FFC8C72B
:102FE800F9BF45C539715AD0138B418C22DC26DADA
:102FF8004AD84ED652D45ECE66CA6AC86EC606DEB7
:1030080056D262CC3689328AAE89AA8401445A8D56
:10301800B94D854BF94C03270B00131C3400937AE8
:10302800F40F62971C43A9EF13B5FA001345150076
:10303800B3978B0063F65D01930714FFB397FB000A
:1030480093950701C1815286093F1DC983270D0049
:103058000145E29784C323A23701630409002300D2
:103068005901F2506254D2544259B259225A925AD2
:10307800025BF24B624CD24C424DB24D21618280D0
:103088000504E31A94F92145E9BF094582804111F5
:1030980022C426C24AC006C6AA842E893284753D37
:1030A800CA852685EFF03F9E09C940C10145B24057
:1030B800224492440249410182802145CDBF4111F9
:1030C80022C426C24AC006C6AA842E89EFF0BF9B36
:1030D8002A8419C123110500CA852685913D014519
:1030E80011E01945B24022449244024941018280CC
:1030F8007547636BA7041387418C1443411126C29B
:1031080093143500A696944222C406C6AA873A8428
:10311800094595C613B5F70039471345150063737C
:10312800F700C5178545B395F500C205C181413F34
:103138001C400145A69723A0070023A20700B24020
:10314800224492444101828009458280411106C689
:10315800EFF07F9309C50845B240410182800145DF
:10316800E5BFF54763EDA7049387418C9C4313178C
:103178003500BA979843894721C7011126CA06CE58
:103188009334F50022CCB94793C4140063F3A70025
:10319800451505443314A400420441802EC62685F3
:1031A800A2856D378947324609C5A28526857533BC
:1031B8008147F2406244D2443E8505618280894756
:1031C8003E858280411106C623A8A18C0295B24093
:1031D80023A4A14C014541018280854763E7B700DC
:1031E8008A059387818CBE9588C18280411106C665
:1031F80022C426C2EF70C125214681451385818CE2
:10320800EFF0FF961384414B130600022285814597
:10321800EFF0FF9523AA018C23A8018C83C74149AD
:1032280013D527008D8B3E958D473305F5029947B9
:10323800930510109384818D35051375F50F2301BF
:10324800A4003305F5021305050F97100020E78049
:10325800405623A2A18C834724001305050F88C07C
:103268008A073E9523AEA18AEFF09F811D2E8347E2
:10327800140098401706000013062683939627002B
:10328800BA9690C293862700850793F7F70FA30095
:10329800D400B24022448A07BA9790C392444101AD
:1032A800828083C7514B03C7614B63FFE7001387D5
:1032B800818D184393861700A38AD14A93962700D5
:1032C800369708C33E8582809307F00FE5BF41110A
:1032D80026C2044106C622C44AC08947638D040E2B
:1032E8004177658FB706002089476316D70E0359C3
:1032F80045006302090E2A8419469305F00F590503
:10330800EFF01F9105478D476307E50C4A86814515
:103318002685EFF0DF851306C003814513858147B5
:10332800EFF0FF841306C003A28513858147971029
:103338000020E780A0C183D741481387814789E7E8
:10334800930700202392F14883C7614881E78547A6
:103358002383F14883C7714881E7ED47A383F14888
:1033680083C7814881E795472384F14883C79148FB
:1033780081E78547A384F14883C7D14889E7834714
:103388000701A386F14883C7A14881E7D147238570
:10339800F14883C7614989E793078002238BF14885
:1033A8008D4683C76149B3D7D70283C6B1489DEA22
:1033B8009387D70293F7F70FA385F1488347D40182
:1033C80081E78947A38AF1481C5781C78297239DC3
:1033D800A14A293D8147B2402244924402493E8590
:1033E8004101828083463401B697E9B7411106C688
:1033F80097100020E78000D483C6C148858AB1C2EF
:10340800930730333307F502B337F5023983CA0718
:10341800D98F1387414B584B01456301F702338518
:10342800E740636BF70037653D0889C637856F0845
:1034380013050590198D3E9523A4F14CB240410126
:103448008280E5473307F502B337F5022583DE07A7
:10345800C1B7011122CC06CE2A842EC6EFF06FEC3C
:10346800B245F240818D33A5A502229562441375B9
:10347800F50F05618280011122CC06CE2A842EC662
:10348800EFF02FEAB245F240818D33A5A5022295CF
:1034980062444205418105618280011122CC06CE39
:1034A8002A842EC6EFF0EFE7B245F240818D33B59E
:1034B800A5022295624405618280938781479857C7
:1034C80031CB411122C426C206C6BE84029703D757
:1034D800A14B2A8435C7BA876373A700AA87C20796
:1034E800C183BA866373E400A286C206C182958F3F
:1034F80051476357F704DC5491C382978547238C5F
:10350800F16AEF206102239D814AB240224492442D
:103518004101828083C7816B8DE39387016B83C7E9
:103528009700850793F7F70FA38CF16AA18B8DC3DA
:103538008547239CF16A6F208104A38C016AE5BF4B
:1035480083C7816BF9D32244B24092444101E5B765
:10355800828093878147D857011122CC06CE3E84BA
:1035680001C72AC60297324509CD23AEA18C17059B
:1035780000001305E5E7B931F240624401450561F1
:1035880082808307440163D9070097170020938737
:1035980047B623AEF18CE1BF97170020938787B910
:1035A800CDBF011122CC13848147084406CE26CA18
:1035B80019E50545F2406244D244056182805C58B1
:1035C800EDDB185C7DD77000854582971844B247BB
:1035D800E301F7FE8357C40003C561489305E0047F
:1035E8003305F5029384414B420541819710002031
:1035F800E780201C23A8A14C4DDD83D7414803C692
:1036080061483306F6029305F00FEFF04FD6D04C21
:10361800084483D7414808C283C56148B385F50289
:103628001C5C89818297C84C97100020E780202471
:10363800014523A8014CBDBF411122C41384814711
:103648001C4426C206C69384414BA9CF1C5CB9CB47
:10365800DC4C8DE38357C40003C561489305E0043F
:103668003305F5024205418197100020E780601478
:1036780023A8A14CC84C1DC583D7414803C661483F
:103688003306F6029305F00FEFF06FCED04C0844E6
:1036980083D7414808C283C56148B385F5021C5CDD
:1036A80089818297C84C19C597100020E780201C93
:1036B80023A8014CB2402244924401454101828032
:1036C800011126CA9384414B22CCC04C4EC652C429
:1036D80056C206CE4AC8AA8AAE89328A31E413890C
:1036E80081478327890099E3A94441A08357C900EA
:1036F80003C561489305E0043305F502420541819D
:1037080097100020E780E00A2A8441C183274903F3
:10371800ADCF83C5614803D74148B385E5022A8602
:10372800032589008981829791451307A00589811E
:1037380093972500A29783C607006395E60483C67E
:103748001700639E560385058A054E86A295528505
:1037580097000020E780807FDC4C814463878700E6
:10376800228597100020E7808010F2406244268569
:103778004249D244B249224A924A0561828083D59D
:10378800270075B7DC4CE38187F622859710002067
:10379800E780E00D91BF93878147984729C39C5FD5
:1037A8009DCF8546631DD502411122C41384414B28
:1037B800504C06C60DC283D6414883C56148B385BF
:1037C800D5023A8589818297484C97100020E78076
:1037D800000A23A8014CB240224441018280828021
:1037E8009387414BD84F011122CC26CA4AC852C4EC
:1037F80006CE4EC62A89AE8432843E8A21EF93894A
:10380800814783D7C90003C561489305E0043305A0
:10381800F5024205418197100020E78080F923A82E
:10382800A14C2A8611E92945F2406244D244424912
:10383800B249224A0561828003A5890001CD83A788
:10384800490389CB83C5614803D74148B385E5025D
:10385800898182970325CA0191461308A005FD5561
:1038680093D72600C207C183139727002A970346D8
:103878000700631B0603834817000356270063935A
:103888002803B306D64063CD960085078A073E9580
:103898002686A28597000020E780406B014569B71E
:1038A800A300B700B2866DBF03D6414883C56148FF
:1038B800B385C502338696001106E3E6C5F613867E
:1038C8003400719A1106B29623000701A30027015C
:1038D8002311D7005DBF0145828083C705002300FF
:1038E800F50083D72500A300F50083D72500A18321
:1038F8002301F50083C74500A301F5001145828027
:1039080023A2018E23A0018E828029C1411126C2E3
:1039180006C622C4AA8401458DC52E842285414647
:10392800979501009385859497000020E7800062B1
:1039380083C7040005452306F40083C71400A306C3
:10394800F400B240224492444101828001458280C1
:10395800011122CC26CA06CE0947AA843284638183
:10396800E50441468147639BC500638FE600639782
:10397800B6000DA841478147638EE600F2406244D5
:10398800D2443E85056182808A852285BD3F4146B5
:103998008A8519A88A85953F41468A85228531A05E
:1039A800E39AB6FC2E86A2852685EFF06FA2AA8739
:1039B800F1B723A2A18E8280011122CC03546500A5
:1039C80006CE26CA4AC84EC641C083298500AE84A1
:1039D8002A8803C90900814713178901618763553C
:1039E8000702B147054563FA870451144204035599
:1039F8002800418033878900A2864E868545EF904E
:103A0800B026B337A00085077D141355690042041A
:103A180005891379F90341802380F400A380A40069
:103A28002381240123928400014719C013871900B8
:103A380098C409476383E7000145F2406244D244D1
:103A48004249B249056182800545C5BFC167F9177A
:103A5800630AF502D94763F7B702011122CC2EC6D3
:103A680006CE2A84EF50F022B2456368B50022855D
:103A78006244F24005616F70E023F24062440545FC
:103A88000561828005458280C167F9176314F500D6
:103A98006F503020411106C6EF70C01111E15D452D
:103AA800B2404101828039714ED656D25AD006DED4
:103AB80022DC26DA4AD852D4AA8A2E8BB28941EF60
:103AC80036C6D9379145EF50302CAA844D492DC9B7
:103AD800B246054A238034010544630A0B00B685C3
:103AE80013851400029B0505131405014180E209A2
:103AF80093D9894163D30902C1455685EF7080186F
:103B0800654905E933868400A2852685EF90C0596A
:103B18002A8905E131044204418091472C085685E1
:103B2800231CF10026CE231D8100EF60D02E2A89A8
:103B380001C963070A00268597100020E78020D373
:103B4800F25062544A85D2544259B259225A925A72
:103B5800025B21618280BA84014AADBF011122CC87
:103B680026CA4AC84EC606CE2A893284B689253F57
:103B7800AA8405E19387418E9C4381CF054763174B
:103B8800E40003C4090005041374F40FA2854A85F0
:103B98008297F240624426854249D244B24905617F
:103BA8008280AE860147054697050000938525D398
:103BB80075B7011106CE2EC6EF60507C01C9B2451B
:103BC800F2400355250005616FA0C02DF24049451C
:103BD80005618280A38801902388019023AC018E1F
:103BE80023AE018E23A0019023A2019023AA018E67
:103BF80023A8018E9387414D3707B40098C33747F0
:103C0800A000D8C3370710009306070A94C7B70661
:103C18005000C106D4C7930607054107D8CB37071C
:103C2800D007410798CF37070F0098D337C7070049
:103C3800130707B8D8D3416794CB93060701130736
:103C480017F8D8D7417723AE070094D798DB82803E
:103C5800011126CAAA84214522CC06CE2E8432C65A
:103C680036C43AC2EFE03FD21DC9A24612473246D7
:103C7800930700FD2300F5009947A3009500230151
:103C8800F5002303D500A303E5002312C500AA8588
:103C980022856244F240D24405616FE05FD9F24068
:103CA8006244D2440561828023ACA18E828023AE17
:103CB800A18E828023A0A190828023A2A1908280DD
:103CC800011122CC4AC806CE26CA2A890144B30467
:103CD80089006368B400F2406244D24442490561F5
:103CE80082802EC6EFE0FFE393170501C183A1830D
:103CF800B2452380F4009307140093F7F70F850467
:103D080063F9B700CA9709042380A7001374F40F56
:103D18007DBF3E847DBFC16703D5E150FD176300B9
:103D2800F502411103C681999385819006C6EF601B
:103D3800F04FB240FD572397F150410182808280B5
:103D480009C925151375F50F1335850E134515008B
:103D580082800145828023800500F94763E2C70815
:103D6800797122D426D24ECE56CA5AC806D64AD01F
:103D780052CC5EC63684B289AE8A2A8B814463FFF0
:103D88003405B307940003CA070013891400137994
:103D9800F90F63050A04B3072A0163C1F904B307DD
:103DA800240183CB07005E85613F0DC99307FAFFA5
:103DB8002380FA0063906B03130519002295B25013
:103DC800225492540259F249624AD24A424BB24BA7
:103DD80045618280D29493F4F40F55B70145C5B775
:103DE80001458280411126C2AE8422C423AEC1504F
:103DF80023ACB15023AAA1502A8441469305F00F61
:103E080026854AC006C60549EFE09FE0631A2503E8
:103E180093878150884BC145653541469305F00F1E
:103E28002285EFE0FFDE85446314950222449387E0
:103E38008150B24092440249C847C145410149B541
:103E4800414681452685EFE0BFDCE31825FDC9B76B
:103E5800414681452285EFE0BFDBE30995FCB2408E
:103E680022449244024941018280411122C426C25F
:103E78002E84AA841306000281451385815006C644
:103E8800EFE0FFCEA3859150A38D8198EFA00003AA
:103E9800854719C181474945B24022442384F150DE
:103EA800924441018280814781CD19C98547631BAE
:103EB800F50083C7550093E707FCA382F500854703
:103EC8003E85828089476317F50083C7550093F7BD
:103ED800F703E5B70D478547E314E5FE03C755002B
:103EE8001377F70313670704A382E500D1BF81475F
:103EF8008DC105C103C755009306000C854713778C
:103F0800070C6308D700930600048D476303D700A6
:103F180089473E858280411122C4005D06C626C2BB
:103F28001DC8AA84085009C597100020E78020946E
:103F3800485009C597100020E7806093085409C5C8
:103F480097100020E780A092228597100020E78034
:103F5800009223AC0402B240224492444101828080
:103F680009E983C7A1501385015291C71385818E32
:103F7800828013850152828003C5A1508280938775
:103F88008150C847828093878150884B828093876D
:103F98008150DC4B8843828093878150D84B1C43E7
:103FA80085071CC303C5B1509307F00F6305F500DF
:103FB80091656FE0DFC78280011122CC06CE2E8486
:103FC80032C6EF60B04A9147B245631FF500938748
:103FD80041909C438DC303A30700630E0300228511
:103FE8006244F240056102839387C18F9C4381C775
:103FF80003A34700DDB7F2406244054505618280AE
:10400800011122CC2A840355450006CE26CA4AC887
:104018004EC6EF60302E35C12A8983440500834996
:10402800C500D53D4A85EF70B01D03554400EF60CB
:10403800703F83C70191B1C76395970483C51191F8
:104048002685EFF01FB719E1238801900355440036
:10405800EF60D0419147631BF5000357440083D7B5
:10406800E1506315F700FD572397F150F240624481
:10407800D2444249B2490561828081499304F00FD4
:104088004DBF9307F00FE383F4FC834664000356A7
:104098004400034524004E87A685EFF07FBB7DB71B
:1040A80079715EC6AA8B2E8552CC56CA5AC806D6D6
:1040B80022D426D24AD04ECEAE8A328B368AEF60D0
:1040C800702379CD045D2A89E1CC9C50614599C360
:1040D800130540039C5481C751054205418163057E
:1040E8000A00710542054181DC5081C75905420526
:1040F8004181EFE05F892A8445C561468145EFE04B
:104108001FA783C941506394090083490900930795
:1041180000FD2300F400A947A30074012301F40063
:10412800230364018C50231254011305840191C99F
:1041380008C47146930A440397000020E78000E111
:1041480056858C5491C948C45146930A4501970035
:104158000020E780A0DF5685630C0A0008C8714676
:10416800D285930AC50197000020E78020DE568596
:10417800CC5099C548C8594697000020E78000DD13
:10418800A2854E85EFE0BF8A2254B2509254F2497C
:10419800624AD24A424BB24B4A8502594561A5BB95
:1041A800B250225492540259F249624AD24A424BBE
:1041B800B24B4561828001114EC6AA892E854AC834
:1041C80006CE22CC26CA2E89EF60D01221C583C420
:1041D800415099E0834405001945EFE0CFFA2A845D
:1041E80015C981451946EFE09F98930700FD230004
:1041F800F400B947A30034012301F4002312240179
:10420800A2856244F2404249B2492685D2440561FA
:104218006FE0FF81F2406244D2444249B2490561ED
:10422800828039715ECEAA8B2E8526DA4ED652D47C
:1042380056D25AD006DE22DC4AD8AE84328BB68AF1
:104248003A8ABE8942C6EF60F00A21C92A894145E7
:10425800EFE06FF32A8431C141468145EFE03F9199
:1042680003C5415019E103450900930700FD2300E8
:10427800F400BD472301F400B247A30074012312E0
:10428800940023046401A304540123054401A305F5
:1042980034015CC4A285EFE08FF9F2506254D25425
:1042A8004259B259225A925A025BF24B21618280DA
:1042B800797126D2AA8439454AD04ECE06D622D460
:1042C8002EC6B2893689EFE00FEC21C1B2459307BB
:1042D800000D2310F500B1472A842312B5002301ED
:1042E800F500CE851905194697000020E78000C61D
:1042F80023062401A2852254B2500259F24913F52B
:10430800F40F925445616FE08FF2B25022549254E8
:104318000259F2494561828003C7B1509307F00FF3
:104328006307F706411126C2AA84394522C406C686
:104338004AC0EFE04FE52A8429C5930700FD230012
:10434800F500A300950023010500938501520D0592
:10435800194697000020E78060BF13898150835772
:104368008900A28503C5B1502315F40083471900BD
:104378002306F4002244B2409244024941016FE00E
:104388000FEBB2402244924402494101828082806C
:10439800011156C2AA8A314526CA4AC84EC652C415
:1043A80006CE22CCAE84328AB6893A89EFE0AFDDF8
:1043B80039C52A842685EF60E0731DCD03450500C5
:1043C800930700FD2300F4009D47A3005401230137
:1043D800F4002312940023134401231434012315F9
:1043E8002401A2856244F240D2444249B249224A99
:1043F800924A05616FE0AFE303C5B150D1B7F2400F
:104408006244D2444249B249224A924A05618280B2
:10441800397162CC2A8C594526DA4AD84ED652D4FC
:1044280056D25AD05ECE06DE22DCAE8432C636C400
:10443800BA8B3E8BC28A468A8359010403494104D8
:10444800EFE06FD435C53246930700FDA24623003E
:10445800F5009547A301C500A30085012301F500D8
:104468002A8419461105A9C2B68597000020E7805D
:10447800E0AD23066401230A2401231574012317E0
:1044880054012318440123193401A2856254F250BF
:104498004259B259225A925A025BF24B624C268513
:1044A800D25421616FE0AFD88145EFE04FECD1B72E
:1044B800F2506254D2544259B259225A925A025B6B
:1044C800F24B624C2161828083C7A1509DC7411184
:1044D800AA8519461385818E06C697000020E780B5
:1044E800E0A69385818E03C5A150EFF0DF9BB24013
:1044F8001385818E41016F90F01C01458280411126
:1045080006C622C426C203C7B1509307F00F63043E
:10451800F704AA842945EFE00FC72A840DCD930735
:1045280000FD2300F500A1472301F500A300950035
:104538009387815083C727009385818E1105A30F28
:10454800F5FE194697000020E78040A0A28503C524
:10455800B150EFE0CFCD03C7C15085476315F702CF
:10456800938701909C4381C79C4791C382972244BB
:10457800B24092445D6603C5819913060670914561
:1045880041016FE0DFB0B240224492444101828091
:10459800797122D406D626D24AD04ECE52CC0944BE
:1045A80045C92A89035505002E8A5144EF60805475
:1045B800AA8459CD83C7B199FD1793F7F70F05471B
:1045C80049446377F7080347C500A1476314F70018
:1045D80063100A089C5C4544A5EF91659385457175
:1045E8001305C00297000020E780A01C88DCAA8978
:1045F8004D4439CD1306C0028145EFE04FD78357AC
:1046080009009386490036852391F9007146930580
:10461800490036C697000020E780409389472380E9
:10462800F90003C5C400B24603560900611583C5E5
:10463800819913351500EF8070562A8463060A00A5
:10464800D2852685EF70E06601C42685EFF0BF8C21
:104658002285B250225492540259F249624A456165
:10466800828083C7B199FD1793F7F70F05476378E1
:10467800F708894751C6011122CC26CA4AC84EC636
:1046880052C406CEAA89368AB2842E89EF60804643
:104698002A84D14729C9485509C597000020E780D1
:1046A800001DF1452685EFE0EFCE48D4CD4705CD76
:1046B8008346C40021478147639FE600630D0A00D3
:1046C8000347A5010356050193062501AA854E85D2
:1046D800EF605056AA8703474400630F0900136729
:1046E80067002302E400F2406244D2444249B249DE
:1046F800224A3E850561828013674700DDB7C947B6
:104708003E858280E14763E9A7009387414D06050E
:104718003E9503550500828041657D158280011113
:1047280022CC2A842E8526CA06CEAE84EF60803C31
:104738000DCDB7470F009387F723094563E287023A
:1047480081450A854146EFE08FC2A6852310810086
:104758000A85418023018100A3010100EF807026B2
:10476800F2406244D244056182804945D5BFA38C9A
:10477800A19882806F80503B797152CC2A8A328509
:1047880022D426D24AD04ECE56CA5AC85EC606D6BB
:1047980062C4AE8BB28A368BBA843E89C28946849B
:1047A800EF60403515C92A8C63140A0213774B0051
:1047B8008347450015CF93E727012302FC008DECC2
:1047C800631C0902639A090205E8ED9B2302FC00B9
:1047D800832B8C03639F0B06B250225492540259C8
:1047E800F249624AD24A424BB24B224C456182801E
:1047F800F59B93E70701D1B793E747002302FC0035
:1048080001CC1C484146A2852324FC0213058C01D7
:1048180097F0FF1FE780807363910B02D5D80325BB
:10482800CC0209C597000020E7806004F145268581
:10483800EFE04FB62326AC0261BFE30B09F803256E
:10484800CC0209C597000020E7806002F1454A853F
:10485800C5B79DC483A70B0299EB91659385357104
:10486800714597000020E780C0F423A0AB0203A5A0
:104878000B0219C57146A68597F0FF1FE780006DEA
:104888006388090283A74B0299EB9165938525718B
:10489800594597000020E780C0F123A2AB0203A589
:1048A8004B0219C55946CE8597F0FF1FE780006A6D
:1048B8001DC483A78B0299EB9165938515715145AA
:1048C80097000020E780E0EE23A4AB0203A58B024B
:1048D80019C55146A28597F0FF1FE780206722542B
:1048E800B2509254F249B24B224CCA865A860259A7
:1048F800424BD6855285D24A624A45616FF04FFADB
:10490800011126CA52C406CE22CC4AC84EC62A8AEB
:10491800AE84EF60201E35C1AA893945EFE0AF8625
:104928002A8421CD03C941506314090003C9090031
:104938009307000D2310F400AD472301F40093857D
:10494800690013053400194697F0FF1FE7800060DF
:1049580093F71400858085882306F400A306940045
:1049680023154401A2856244F240D244B249224A46
:104978004A85424905616FE08F8BF2406244D24418
:104988004249B249224A056182809387018F884350
:1049980001CD411106C697000020E78040EDB240E6
:1049A80023A8018E410182808280011106CE22CC8B
:1049B80026CA4AC82EC6EF60E01329CDB24503C9FE
:1049C8004150AA840CD563140900034905004145E8
:1049D800EFD07FFB2A841DCD9307000D2310F5002F
:1049E800A5472301F50083C754009385640011058A
:1049F800A30FF5FE194697F0FF1FE78020559C543A
:104A0800A285F2405CC46244D2444A8542490561A9
:104A18006FE0EF81F2406244D244424905618280EE
:104A2800797122D406D62A842EC6EF60A00C0DCD4B
:104A38008346C5001147AA8749456393E6029C5FF0
:104A4800B24599C383C567010808EF70802F978620
:104A58000000938646B4100889452285EF605022ED
:104A6800B2502254456182805145DDBF83C7B19958
:104A7800FD1793F7F70F0547637AF704894721CAAB
:104A8800411122C426C24AC006C6B2842E89EF60EC
:104A980060062A84D14705C5630809008347450095
:104AA80093E727002302F5004146A68513058401F4
:104AB80097F0FF1FE78080499C481CD48147B2408B
:104AC8002244924402493E8541018280C9473E857D
:104AD8008280797122D406D62A842EC6EF6080019E
:104AE80001CDB2452285230EB1006C08EF70E018A5
:104AF800B2502254456182805145DDBF6F60000D80
:104B0800C1671387E7FF6394E5029387C18F9C43CE
:104B180091EB494582804945B2402244924402497A
:104B28004101828003A30700E30503FE02834111CC
:104B380022C426C24AC006C6FD172A892E84B2841A
:104B48006395F5029387C18F9C4391CB9C4381CB9E
:104B5800829711E523882191A388919075BFA68536
:104B68004A85EFF00F854DF9F5B72E85EF5090780F
:104B78005DD1834705000D45E39027FB228522443C
:104B8800B2400249A685924441016F90A031E147A5
:104B980063E6A70441677D1789476382E5044111ED
:104BA80022C426C206C6C547AE842A84631AF50005
:104BB8001305C0033385A50242054181EF900036F5
:104BC800131514001384414D2295B240224423103A
:104BD8009500814792443E854101828089473E8500
:104BE8008280011106CE2AC6EFE0DFFEEF00507783
:104BF800EF00606CEF50C141324593878150130735
:104C080000F02391E700238207007D57938781995D
:104C1800A380E7002380A700F240954505616F4017
:104C2800F0125D7193970501CAC086C6A2C4A6C2D8
:104C38004EDE52DC56DA5AD85ED662D466D26AD0D4
:104C4800C1872E8963DC074603C58199EFD09FD7BA
:104C58008964416A856A797B2A84938BD4007D1A9A
:104C6800A50A691B15E021653345A900B64026440D
:104C780096440649F259625AD25A425BB25B225CA8
:104C8800925C025D61618280834704001307200AF9
:104C9800639BE7000355240003CCB1502286D285DC
:104CA800EFF08FB109AA1307100903CC919963910A
:104CB800E714834714001547639EE7002285EFF049
:104CC8002FB42285EFD07FC903C58199EFD09FCF3C
:104CD8002A8449BF39476393E71403554400631393
:104CE80055050C4483C90500639B0900850581C9E6
:104CF80019461385015297F0FF1FE780202503C747
:104D0800815085476316F70E638809002384015094
:104D18004E85EFF06FE075B789472384F150EF9027
:104D2800201A45B793872400631CF504832984005F
:104D38006380090C83C7090089EF83C7290003C76B
:104D48001900A207D98F2398F15083C73900A3848B
:104D5800F15003C781508947631CF70883C70900CE
:104D680091C72384015003C5090065B78D4783C5E2
:104D7800915003D501512384F150EF40E07FE5B70E
:104D8800938754006318F5001C4403C50700EFF02F
:104D98000FF705BFB3076501C207C1831147636FEA
:104DA800F700938701909C43E38D07F09C43E38AC7
:104DB80007F022858297E31605F01DA89387B400B3
:104DC800631FF5009387818F9C43E38C07EE9C4318
:104DD800E38907EEA2851385B4008297E9BF93871C
:104DE800C4006310F5021C4483C70700E38B07EC7B
:104DF8009307F00FE307FCECA2856285EFD03FC371
:104E0800E1B59387E400E315F5FE9387C18F9C43D2
:104E1800E38907EADC43A285E9F365B53D47639575
:104E2800E70403554400E30275FF93879401E30EFA
:104E3800F5FC93873401E31DF5FA83D7E150639EAF
:104E480047019387C18F9C43E38D07E6DC43E38AE0
:104E580007E6A2851385340149B7938741909C439F
:104E6800E38107E69C43E5B71307E003E392E7F81D
:104E78008347240005476392E70E83476400138D38
:104E8800018FE1E383270D00D5CB03CC0700A149AF
:104E980003457400930C8400E685EFF04F85834743
:104EA8004401A303A400835804010358E4000357F2
:104EB80044002A86034534003EC283572401E6860F
:104EC800E2853EC0CE87EFF0AFD48347340095E744
:104ED800DD47835804010358E40083467400835572
:104EE80044003EC2835724013EC06687CE870546EC
:104EF8006285EF50306DA301A40083270D0081C7A0
:104F08001145EFF09FA803C50191E30C05DA83C5AD
:104F18001191EFE01FCAE30605DA834634009307D0
:104F28001003638AF600035644004E8783C5019137
:104F38003685EFE0FFD12388019061B303CCB150EF
:104F4800B9B7938701909C4303CCB1509149A9D339
:104F5800DC439DDF0145829725BF29476399E70810
:104F680083476400138D018FBDE783270D00ADC310
:104F780003CC0700A14903457400930C4401E6855E
:104F8800EFE0FFF683470402A303A4008358C4019B
:104F98000358A401035744002A86034534003EC23F
:104FA8008357E401E686E2853EC0CE87EFF04FC620
:104FB80083473400B9F3DD478358C4010358A4017B
:104FC80083467400835544003EC28357E40129BFD9
:104FD80003CCB15045B7938701909C4303CCB150A3
:104FE8009149D1DBDC43C1DB0145829769B70947A9
:104FF800639DE7009387818F9C43E38407CCDC4360
:10500800E38107CC228582976DB92D476399E70024
:105018009387818F9C43E38607CA9C47D5B70D4782
:105028006397E70022868D450355440095B91947D3
:105038006395E7069305610113051031EF50A1054B
:105048002C0813052031EF500105035664008357DF
:1050580081010355440063E8C70083568400035761
:10506800610163F7E60093050002EF80306A91B9A9
:105078006374E6002313E40063F4D7002314F400F8
:105088000357C4008356A400035684008355640064
:1050980001488147EF8050672DB11D47E39AE7D457
:1050A80003574400E3E6E7D49387015C06073E977D
:1050B80083576400F1172310F7001DBB93F7150001
:1050C80081CF9387818F9C4389C7DC4399C301456E
:1050D80082971345190059BE93F7250081CF93870E
:1050E80001909C4389C7DC4399C3054582971345C2
:1050F8002900ADBE93F745000145E38907B683C78C
:10510800D150B1CBFD1793F7F70FA386F150A1E764
:105118009387418F9C4381CF85472386F15093879E
:1051280001909C4389C7DC4399C3054582979387BF
:105138008150C8472C08EF70F0712808EFF0CFB8FD
:105148009387414D83D72702914503C58199A3864B
:10515800F150EFD0DFF61345490009BE411122C4D2
:105168002A84554506C6EFF0EFD9B335A00022854D
:105178002244B24041016F803056797122D406D65C
:105188008D472E84631FF50003D7A50083D68500BD
:1051980003D665000345340083D54500EFF04F9FE3
:1051A80009A889671387D7006310E50403C525009C
:1051B80019E58547B25022543E8545618280938720
:1051C800018F9443FDD603C6360083C50600814887
:1051D80002C202C00148814701479106EFF04FA380
:1051E8000545EFF08FFAF1B71387E700E303E5FC15
:1051F80013873701631AE50003C525005DD9014708
:1052080081460146814559BFE507E304F5FA416740
:105218007D178147E310E5FA03C75500C947E31A2C
:10522800F7F883D6E50003D6C5000355840083D577
:10523800A500EF80304F21C15D45EFF0AFCC33358D
:10524800A000231EA10083454400035524007008D4
:10525800EF50207F8357C101A9FF0357E40083560D
:10526800C4000356A4008355840003552400014854
:10527800EF8090473DBF8547231EF100E9B7C1671E
:105288001387E7FF639DE5009387018F9C4395C3D0
:1052980083C707000D47639CA7006F803044FD1744
:1052A80049476396F5009387018F9C43FDF73A853C
:1052B80082804947EDBF238E019023A2019223A04B
:1052C800019293878152170700001307E72398C3B9
:1052D8001707000013070727D8C31707000013078D
:1052E800275998C79387419117070000130767F953
:1052F80098C317070000130787E8D8C382800111F5
:1053080022CC138441921C4006CE26CA4AC84EC6F7
:1053180052C499CF2E8AAA8401490840631299027F
:10532800630C0A0497F0FF1FE780605423A20192E0
:10533800F2406244D2444249B249224A056182801D
:1053480093194900B3073501884709C997F0FF1F2A
:10535800E780E0511C40CE9723A407001C40CE975D
:10536800C84709C997F0FF1FE78060501C40BE99E5
:1053780023A60900050955B745DD13964400814564
:10538800EFD0EFFE144081477D5613F7F70FE37116
:1053980097FA1397470036972300C7008507F5B794
:1053A800011152C4138A019283270A0006CE22CC27
:1053B80026CA4AC84EC656C25AC0C9CF2A8901440D
:1053C80019ED93874192944399CA03C6C1912A84DF
:1053D80081479305F00F13F7F70F6367C708131595
:1053E80034002105EFD02FDAAA8401E92145EFD056
:1053F8008FD9AA8421C501444D49930700FD238014
:10540800F4008547A38024012381F400A38184004C
:105418005DC41389840023A224018149938A41929F
:10542800130BF00F83C7C19163F3F90031E88327A9
:105438000A00A68503C50700EFD06FDF814503C5C5
:10544800C191753D03250A0097F0FF1FE7802042B0
:1054580023A00192F2406244D2444249B249224A0E
:10546800924A024B0561828013974700369703479B
:1054780007006305B70005041374F40F8507A1BF7F
:1054880083A70A0093954900BE9583C705006384E6
:1054980067032300F90083C71500130529007D144D
:1054A800A300F900194689051374F40F97F0FF1F3C
:1054B800E780C0A92109850993F9F90FA5B723A2A7
:1054C8000400B5B7411122C406C62A8405E109457E
:1054D800EFF04FA32A8611C5854503C58199EFD002
:1054E800DFA70545EFF09FC72A8401C9854503C595
:1054F8008199EFD0DFBC22856535B240224405454D
:105508004101828089671387B700631AE500938792
:1055180001929C439DC39C4503C5070065B713874B
:10552800C7008147631CE5009C4503C50700854704
:1055380011C5938701929C43F5F381473E8582808C
:105548001D7186CEA2CCA6CACAC8CEC6D2C4D6C23F
:10555800DAC05EDE62DC66DA6AD86ED663080526D3
:10556800834735002A8A95CB404105C85945EFF055
:105578006F9993178501E187916B3EC40149938A1E
:10558800019293894192930C000D130BF00F138D28
:10559800EB7183473A006361F902F6406644D644EA
:1055A8004649B649264A964A064BF25B625CD25C8B
:1055B800425DB25D2561828083078402224763C110
:1055C800E72A83A70A00B5CB034704008547630B86
:1055D800F70603468400930694009305F1010545F8
:1055E800EFE06FF7814719C1834705008346040040
:1055F80011476381E60203A70A008D460347170097
:10560800630AD70081CB19C70DC98546631FD70226
:105618008D8B85C703451400130C2400E285EFE049
:105628001F8DA300A40083A70900AA84814D95E7D4
:10563800034604009147631AF60C83A70900639197
:10564800072239A48147014555B78946E317D7FE94
:10565800858BC1B7850D93FDFD0F83C7C19103A548
:105668000900E3F7FDFC93974D003E9503470500BD
:10567800E30267FF03471500E31E97FC1946E2851E
:1056880009053EC6EFD0CFD4B24769D583A4090037
:1056980003470400BE94C9DC9147631CF708C8445B
:1056A80005C583478400034605006306F6080347DB
:1056B80004009147631FF708C84419C597F0FF1FF6
:1056C800E780E01A23A6040003458400EA8505055F
:1056D80097F0FF1FE780E00D05C5034704009147D9
:1056E8006312F708C8C4834784009305940005052E
:1056F800A30FF5FE0346840097F0FF1FE78000859F
:1057080083478400639207140DBF83A7090095D7C8
:1057180083C5C1910147E302B7F2BE84C10703C53F
:1057280007FF6300650D05071377F70FEDB788C40A
:10573800FDA08844B5B7930594000505EFD04FC97F
:105748008547E316F5F65545EFE0DFFB630E050EDA
:10575800EDB5884435D997F0FF1FE780401123A4A1
:1057680004009DB788C441B7B547231095012301AC
:10577800F50083470400194693052400A301F500AA
:105788008307840215052303F50083471400A30F3C
:10579800F5FE97E0FF1FE780607B034684002386C1
:1057A800C40015C21385440188C89305940097E086
:1057B800FF1FE780A07983A70A00A68503C5070015
:1057C800EFD0EFA671A823A80400F5B7938701923C
:1057D8009C43E38407DCEFF0BFBC0145EFF01F9862
:1057E8006DBB2380C40083471400E2851385240021
:1057F800A380F400194697E0FF1FE7802075034552
:1058080084009385FB71050597F0FF1FE78060FA18
:1058180005C5034704009147E31BF7F0C8C4834755
:105828008400930594000505A30FF5FE0346840044
:1058380097E0FF1FE78080718347840091E7034763
:1058480004008547E31BF7DE83A70A00E38707DE2A
:10585800034584005105EFD00F93AA84E31605F0A1
:105868000509130494021379F90F25B3797106D643
:1058780022D426D24AD04ECE52CC56CA5AC85EC678
:1058880071C183473500AA8985C7444195C05945E8
:10589800EFE05FE7931A850193DA8A410149138A99
:1058A8000192130B00FDC14B83C73900636DF900EA
:1058B800B250225492540259F249624AD24A424B97
:1058C800B24B456182808387F40063C857078327FA
:1058D8000A00A5C75145EFD00F8B2A8439CD230084
:1058E8006501A30005002301750183C7040019465B
:1058F80093852400A301F5008387F4001505A3060A
:10590800F50083C71400A30FF5FE97E0FF1FE7809B
:10591800E06383C78400938594001305C400A3053E
:10592800F400194697E0FF1FE780406283270A00CA
:10593800A28503C50700EFD08F8F0509C10413792D
:10594800F90F9DB7938701929C43BDD3EFF05FA5F4
:105958002254B25092540259F249624AD24A424BF6
:10596800B24B014545616FF06FFF83C7B199A18BB9
:105978001385419191E301456FE06FB3411122C452
:1059880085452A8403C5C19106C6EFF05F9783C792
:10599800B199A98BB5C713858152238E8190EFE009
:1059A800AFB0138441921C4091C74D45B240224488
:1059B8004101828003C5C19119E10145C5BF9165C7
:1059C8009385B571120597F0FF1FE78080DE23A24B
:1059D800A19261DD03C6C19112068145EFD02F99CE
:1059E800104083C6C1918147FD5513F7F70FE37641
:1059F800D7FC1397470032972300B7008507F5B700
:105A08000145238E0190EFE02FAA45BF9387418F70
:105A1800884301CD411106C697F0FF1FE78020E5B6
:105A2800B24023AA018E410182808280011122CCDA
:105A380006CE8D472E846310F50603C73500E94767
:105A480003D545006316F70083D7E1506381A706A5
:105A5800EF50400A09C5835764002317F500035720
:105A6800A40083568400035664008355440003450C
:105A78003400EFE0FF910357440083D7E1506308F7
:105A8800F7008547F24062443E8505618280FD57F4
:105A98002397F150FDB78967CD07631DF50083C7CC
:105AA800250031476385E7004547E39CE7FCEFE0C5
:105AB8008FA6C1BF41677D178147E315E5FC83C603
:105AC80055004947E390E6FC83C54500035524008B
