:040000006F108009F4
:1000040000000000000000006F0080086F00001E68
:1000140000000000000000000000000000000000DC
:1000240000000000000000000000000000000000CC
:100034006F004006000000006F00E00500000000B3
:100044006F0080056F0060056F0040056F0020059C
:100054006F0000056F00E0046F00C00400000000A2
:100064006F0060046F0040046F0020046F00000400
:100074006F00801E6F00C003000000006F0060036B
:100084006F0040036F0020036F00601E6F00E002EA
:1000940001A001A001A001A001A001A001A001A054
:1000A40001A001A001A001A001A001A001A001A044
:1000B40001A001A001A001A001A001A0B717004068
:1000C400930670052380D704130780FA2380E7047E
:1000D40003C6B7041376F60DA385C704238007046B
:1000E4001376050225C603C6A700118A0DE22380F4
:1000F400D7042380E70403C7A700136747002385B9
:10010400E7009307004B01000100FD17EDFFB7174F
:100114000040930670052380D704130780FA2380D8
:10012400E7047D892394A700010001000100010078
:10013400238007042380D7042380E70485463727D8
:100144000040A303D780238007048280137605042C
:100154006DDE03C6A700418A0DE22380D704238005
:10016400E70403C7A700136707012385E700930784
:10017400007D01000100FD17EDFFB7170040930655
:1001840070052380D704130780FA7D892380E70450
:10019400136505042394A700010001000100010078
:1001A400238007042380D7042380E7048D46372760
:1001B400004041BF4111814601468145014506C6C3
:1001C400CD22B7170040130770052380E7041307F7
:1001D40080FA2380E70403C76704136717002383A7
:1001E400E70423800704B24041018280814601462E
:1001F400814501457D22B717004013077005238010
:10020400E704130780FA2380E7047D572396E70267
:1002140003C76704136717002383E70423800704D5
:1002240001A0BD473305F50201007D1575FD8280EF
:10023400411122C426C206C6AA840144631794004D
:10024400B240224492444101828005041305803E59
:100254004204C13F4180DDB7B717004013070003D4
:100264002388E702854723A2F178730020303747BB
:100274000040834747C09946BD8B638BD702314703
:100284006385E70011476397E702B745004003C65B
:10029400A5C01385C124938585C097E0FFDFE7805F
:1002A4006024420541810DE58547238FF18819A01B
:1002B400834757C073002030834687C0850793F770
:1002C400F70F2384D1888346A7C0E3E7D7FEE9BFAD
:1002D400814737470040C5BF411106C6052997E04D
:1002E400FFDFE780A06BDDBF230304809547230372
:1002F400F4802302A480828083076480E3CE07FE17
:1003040023030480828083076480E3CE07FE0345D1
:100314004480828083076480E3CE07FE2302A480A6
:100324008280411126C44AC24EC006C61377F50B1B
:10033400AD47AA892E8995446306F70019456D37A0
:10034400653F8D444E854D37FD59FD146398340146
:10035400B240A244124982494101828013550901E5
:100364001375F50F453F2209CDB7011126CC06CEF2
:10037400B704080051371545853F713769372AC6D8
:10038400A53F32459377150089EB13651500137566
:10039400F50FF240E24405618280FD14E9FC014559
:1003A400CDBF397126DC4ADA4ED852D656D45AD249
:1003B4005ED006DE62CE66CCB7E700E07D5783AA46
:1003C400070022C603AA470023A0E71823A2E718C0
:1003D400B7170040130770052380E704130780FA5A
:1003E4002380E70483C74704930B75FFB684E207B1
:1003F40093FBFB0F8546AA892E8B32893724004054
:10040400E187015763FA76016308D500894613072B
:1004140000026313D5000157D98F93F7F70FB71C68
:1004240000402382FC0411472303E4801305F00FEA
:10043400653D094CD13563697C11B70707003E9BC4
:10044400378707007955637EEB02B3079B00636A25
:10045400F702A9476399F90689E48144713D268529
:100464000DA0DA850945753D05090345F9FFFD141D
:10047400050B4D3581C49377FB0FFDF7FD3569FD01
:100484007D55B7170040130770052380E704130751
:1004940080FA2380E70403C74704418B2382E704DF
:1004A400F250B7E700E023A0571123A24711E2540A
:1004B40032445259C259325AA25A125B825B724C6C
:1004C400E24C21618280A5476395F9068569130989
:1004D400F00FB3069900B3742B01B6941349F9FFD6
:1004E400B3749900856B33796901416B9387F9FF84
:1004F400B3F7270199E363FC340193D94900C14759
:10050400E3E637FF99BF0569C1697D19D9B71305BA
:10051400800D638869011305000263847901130562
:100524001008CA85FD3B913521DD4E99B3843441D1
:10053400D9B7DA852D45F533CA94E30099F2050954
:10054400D933A30FA9FED5BF9387F9FF93F7F70F0C
:10055400636CFC0803C75C04B70708001377070241
:1005640019E3B78707007955E37DFBF033079B0058
:10057400E3E9E7F089476390F9048980D549E38E7C
:1005840004ECDA850945713B11090327C9FF91473A
:100594002320E48003076480E34E07FE23033481B1
:1005A400FD17EDFBFD14110B81C49377FB0FE9FFDD
:1005B4006D3B71F5F1B58547E387F9F4DA852D458F
:1005C4008D339389F4FFE38A04E8353B93F73900CC
:1005D40091EB832604800327090093074900E39FD6
:1005E400E6E63E89CE84F1BFB5476396F90013056C
:1005F400900BDD399DB5B1471305B00AE38BF9FEC5
:100604009947639EF902DA852D45213B81448D4B40
:10061400A149D53963967401832704802320F90006
:100624008504E39834FF8327048013172B01635553
:1006340007002312F90015B52322F90039BD9D479F
:100644006391F90281451305B004E1399D44FD59D4
:100654005D39B30799002380A700FD14E39A34FFA2
:10066400EDBBA1476392F90409338144630D0B0088
:100674008547930440046308FB0093040005630466
:100684008B019304C0031375C507E30895DC194572
:10069400A1399D31054589392685AD3909459D39ED
:1006A400E931E31C05DAE9BBE38909DAF1547DB3E6
:1006B40019CDB7170040130770052380E70413070B
:1006C40080FA2380E7042396A7022380070482800C
:1006D40019C1814799E982803387F5008346070071
:1006E4003307F50085072300D700E397C7FEE5B776
:1006F40019C1FD5781E98280910503A7C5FF110542
:10070400232EE5FE7D16E319F6FEF5B7011122CC82
:100714001384418B1C4006CE26CA4AC881C78297DF
:1007240023AA018A5C4089CB03D5C18A51375C4036
:10073400829703D5E18AAD3F1C406398071283C7B3
:10074400516B858B63810710A38A016A83C7716B20
:100754000947639FE70AD52197F000E0E780401A34
:100764009387818A984303C6514BBE8483C7414B08
:1007740093961700BA9683D606006380060E83C745
:10078400414B63F4C70686073E9783550700231041
:10079400070003D5C18A2EC6213F9387418C9C4311
:1007A40003C5414B13172500BA979C43B245829762
:1007B4002A8903D5E18AED3D83C7414B139717007E
:1007C4009C40BA9703D707003369E90023902701B7
:1007D4009387414B83C70700850793F7F70F238A55
:1007E400F14A03C7514B63E4E700238A014A1C40E2
:1007F400ADEF03D5C18A6D3D97E0FFDFE7806079F7
:100804006244F240D244424903D5E18A05614DB5C0
:100814000D476398E700152197C000E0E78060EE7C
:1008240081B715476398E7000929971001E0E7802D
:10083400603B3DB71D47E395E7F2012197A000E037
:10084400E78080BA31BF83C7416F918BE38A07F099
:10085400971001E0E780E00F21B7850793F7F70FC2
:10086400238AF14AE3E4C7F019BFF2406244D24458
:100874004249056182809167B7C60040938737304B
:10088400411123A6F620010001009387414B984FA4
:100894009387C19A9C433A07F053B7071000FD179A
:1008A400918F9983D98F3EC6B1679387373023A63A
:1008B400F6203245410182804111B7170040985F0C
:1008C4003AC6945F3247E39CE6FE3245410182809A
:1008D400938741999C43411122C406C62A84DDEFC3
:1008E4004165130525F597C000E0E780E0AE5DC5DE
:1008F4008347C5002316F5008327840FD9E7232CEB
:10090400A40E232EA40E8547231AF40223200500E7
:100914008347B40054412315F5000347A40023047E
:10092400E5001387016B184F1385170215811C43CB
:100934007D151375F50F9CC25C439386060213075D
:10094400070223A2F6FE832787FE23A4F6FE83274D
:10095400C7FE23A6F6FE832707FF23A8F6FE8327F8
:1009640047FF23AAF6FE832787FF23ACF6FE8327DF
:10097400C7FF23AEF6FE45FD83D781608507239428
:10098400F160B2402244410182808327C40F88C3AE
:1009940083574403232EA40E8507BDB783478400E1
:1009A40023080400054593C747002304F400D1BF7E
:1009B4008347E50193F7E70F89CB01458280014521
:1009C400B24022449244410182808347F501F5F705
:1009D400411106C622C426C2034705018347850088
:1009E40019C70346650283C6D1486367D60093F6E8
:1009F4000701F1D6014409CB034405150347F51457
:100A0400C18B2204598C81CB834745150347351587
:100A1400A207D98F3E9445D493870160B44B938742
:100A2400814703864701FD54B705C0A803A70608FC
:100A340083D74607635B0602B307F74063F3970067
:100A4400BE849442E5F69387818C9C438297E3E8C5
:100A5400A4F61304B4141580130404023385A440CB
:100A64003335850013451500A1BFE377F7FC2E97B6
:100A7400E1B7411122C61384C199184026C44AC261
:100A84001C5F938481999983858BA9CF9307F0FB8D
:100A94001CDF83C7016B93F707041389016B99C7A4
:100AA4009387818C9C43829723A0A16C8547A38A5A
:100AB400F16A9387C19A9C430327C900B8D393076B
:100AC40000F8238AF16A8307690063DD07009C400C
:100AD400130700FC238BE16A9C439983858B99E37C
:100AE400238B016A9C40D8430583058B19C7D843DF
:100AF400759BD8C3D843799BD8C318401C5F8583A2
:100B0400858BC9CBF5571CDF0100010001000100F2
:100B140001000100010001000100010001000100C9
:100B240001000100010001000100010001000100B9
:100B340001000100010001000100010001000100A9
:100B44000100010001000100010001000100010099
:100B54000100010001000100010001000100010089
:100B64000100010001000100010001000100010079
:100B74000100010001000100010001000100010069
:100B840001000100010001009387C19A9C431307EF
:100B94005004B8CB18401C5F9183858B99CBBD570B
:100BA4001CDF9387C19A9C4323A807048547238AA3
:100BB400F16A3244A244124941017300203037F7EC
:100BC40000E0832707D1CD9B2328F7D09387016BBF
:100BD40003C74700058B01EF03C73700058B01EB03
:100BE40003C72700058B01E773005010D5B7828037
:100BF4009387C19A9C43094798C3D1B79387C19AF5
:100C04009C4337C700401306C003A8CB93062003B8
:100C14009385016B83278720C18393F7F703636967
:100C2400F60083278720C18393F7F70363E6F60072
:100C340083C74500858BF9DF828037F700E083277F
:100C440007D1CD9B2328F7D09387016B03C74700B7
:100C5400058B01EF03C70700058B01EB03C71700E2
:100C6400058B01E773005010D5B782809387C19A32
:100C74009C4337C700404146A8CBE5469385016BAA
:100C840083278720C18393F7F703637DF6008327C7
:100C94008720C18393F7F70363E6F60083C7450013
:100CA400858BF9DF8280034715001507719B0D07BB
:100CB4002A9709C68347F7FF2300F60083470700F6
:100CC400054593F60701A9E68DC103C6616B93063A
:100CD400000C0945631ED60293F6F7060546639990
:100CE400C602E207E18763C507028347E7FF0347BC
:100CF400D7FFA20793F70770D98F13970701418392
:100D04009376074099C6136707802392E19A0145B9
:100D140082802392F19AE5BF1386C19A0842938692
:100D2400016B184593170701C18313781720BE85FB
:100D340063070806137707206303071003C7260019
:100D4400136717002389E16A1307001938D11307C1
:100D540000F8238AE16A1387C19908433708001011
:100D64005855719B1367270058D5184133670701FD
:100D740018C11387819A18431DC303284700832889
:100D8400870003250800336515012320A8000328E4
:100D9400C700584B03250800498F2320E80013F7A8
:100DA400251021C393F50510D5C503C706001367A5
:100DB40017002388E16A238A016AA38A016A1387D8
:100DC400819A184309CF084B032847010C41B3E526
:100DD40005010CC1084318470C414D8F18C1239CD1
:100DE400016A83C6460093C7F7FFC207E206E1869D
:100DF400C183184263DF06009396170163D3060686
:100E04003053894663E7C6008546238AD16A345342
:100E1400FDFE938681478386460163DD0600939633
:100E24000701C18663D306047053894663E4C60090
:100E34007453FDFE1447F58F1CC77300203003C79D
:100E4400160013671700A388E16A238A016A239CAA
:100E5400016A05B703C7360013671700A389E16A5F
:100E640099BF8546238AD16A6DB754471396060104
:100E7400635D0600B7061000FD1674D39386414BDC
:100E8400944E850623A6D14C75B7A166D58F5DB760
:100E94001387C16C8346B70183C7516FB69793F725
:100EA400F70FFD4663EAF604504BA386F16C83C743
:100EB400D16C05473317F700A38AF16E718F29E7C8
:100EC400814613050002B355E600858981C5850670
:100ED40093F6F60F0507E318A7FEB3F6D70201470A
:100EE400814713050002B355F600858999C9631734
:100EF400D700A386F16C828081177DB7050762074E
:100F040061878507E391A7FE82809387019B9843BD
:100F1400B75702009387079F832607091396560045
:100F24006358060083260709139666006344060087
:100F3400FD17FDF38280A16785072A876397F50073
:100F440083C7C1950145D5E38280014555C3CDC111
:100F5400B307E0408D8BBA97C207C18313074003E0
:100F64006369F7021387C1A20843138741A214439C
:100F74006394A60213878147185B014535CB411161
:100F8400C20706C60545DD8D0297B2400145410101
:100F94008280138781A2C9BF0357650029E70357DD
:100FA40045006362F704B306F74021466370D60236
:100FB4001041938687001D8FAA96611790C22392D1
:100FC400E6002393060014C12312F500A16723133E
:100FD400B50085076397F50083C7C195FD17238E78
:100FE400F19421058280084161B7014535F382807F
:100FF400828001CD9387C1A203A80700938741A2F1
:101004008C430147C28763E3B70082809443636FD4
:10101400F50663EDA60613868700E368C5FE03D5CF
:101024006700216605066317C50003C6C19505065A
:10103400238EC1942393070063840703138681A23C
:101044001042630FF6000356670019EA83D747007E
:1010540014C383564700B697A1072312F700BA8733
:101064009843E304B7FA938681A29442E30FD7F836
:1010740083566700D9FA83D64700035647001843BE
:10108400A106B2962392D70098C382803E87B68782
:021094009DBFFE
:10109800974100209381813617710020130101F6D2
:1010A80013054000972500209385457517360020C5
:1010B8001306E67D63FAC5008322050023A05500C8
:1010C80011059105E3EAC5FE17B5010013050506EC
:1010D800973500209385C57B1386818663FAC50002
:1010E8008322050023A0550011059105E3EAC5FEFA
:1010F8001385818697650020938505296377B50058
:10110800232005001105E36DB5FE9302800873A046
:101118000230972200209382626E93E2120073904D
:101128005230971200009382E22F739012347300AA
:1011380020303D432A876373C3029377F700BDEFDE
:10114800ADE5937606FF3D8ABA960CC34CC30CC72F
:101158004CC74107E36BD7FE11E28280B306C34058
:101168008A069702000096966780A6002307B700B4
:10117800A306B7002306B700A305B7002305B700E9
:10118800A304B7002304B700A303B7002303B700E1
:10119800A302B7002302B700A301B7002301B700D9
:1011A800A300B7002300B700828093F5F50F93964C
:1011B8008500D58D93960501D58D61B79396270047
:1011C8009702000096968682E78086FA9680C11775
:1011D8001D8F3E96E374C3F8A5B7B717004003C741
:1011E80077051377E70FA38BE704130700F8A38DA0
:1011F800E7043D47238CE70413075003A38CE70457
:10120800828041112A83014E930E407E130F0019EC
:10121800930F400663EB6E0A930800191303400608
:10122800B3781503854E0D4FA14F337365020D89B1
:101238001335150063E5BE0C1308F6FF794672985E
:101248004208135808013307C70213D61700BE0710
:1012580032976146B3F6C60213068070B386C6029B
:101268003697A166F58F42075D8FB717004083C692
:10127800F70293F60608A307D1000346F10083C6D8
:10128800F70293F60608E394C6FE8346F10093F648
:10129800F60FF1DE930670052380D704930680FAD3
:1012A8002380D70423AA070383C6170393E60608F7
:1012B800A388D702D8DB03C7170313670704A388DB
:1012C800E70223800704410182807D133368E3032A
:1012D8009308E016630E08003368F3039308D016EA
:1012E800630808009378330093B818009388D816D9
:1012F80033081E01131E0801135E0E0121BF6393FC
:10130800E5030548638608000148630303002A884B
:1013180071087298FD15131E0801C205135E0E01AF
:10132800C18109BF13F8150063F4BF007908D5B768
:1013380013381800E5BF914763EEB70217A70100FD
:10134800130707688A05BA959C41BA978287B71729
:10135800004003A7470B1345F5FF698F23AAE70A47
:1013680003A7070B698F23A8E70A03A7070A798D44
:1013780023A0A70A8280B717004083A6470B13470C
:10138800F5FFF98E23AAD70A83A6070B558D23A844
:10139800A70A83A6070A758F23A0E70A8280B717D2
:1013A800004003A7470B498F23AAE70A03A7070BA7
:1013B8001345F5FF45BFB717004083A6470B1347F2
:1013C800F5FF758F23AAE70A03A7070A598D4DB7BA
:1013D800B717004003A7470B498FEDB7B717004071
:1013E80003D58700420541819377050491EB9377F4
:1013F800F5013755E801130505803345F50282806C
:101408009377050C130700046397E7009377F501BA
:1014180037459C1CCDB72165130505D0828037E779
:1014280000E01C435443A183E206D58F1CC1FD573D
:101438002320F7182322F718828013178500B7E7AF
:1014480000E023A0E710618123A2A7108280B7F7EC
:1014580000E0C8439C478280814737370040A14657
:1014680063C4C700328582800345B740E38EA6FE79
:101478003385F5000345050085072304A740CDB74C
:10148800411122C406C62A84913F2947B307E502C1
:10149800B2408D83B3D7870222449507B3D7E702BA
:1014A80037370040C207C1832316F74041018280C5
:1014B800716541111305052006C6D937B7370040B5
:1014C800130770F82381E7400D47A381E74013070E
:1014D8000004A380E74005472387E740B240410165
:1014E8008280411122C406C62A84CD3D2947B3070C
:1014F800E502B2408D83B3D7870222449507B3D75C
:10150800E70237470040C207C1832316F7C04101ED
:101518008280716541111305052006C6D937B74782
:101528000040130770F82381E7C00D47A381E7C087
:1015380013070004A380E7C005472387E7C0B2402C
:1015480041018280B747004003C717C019C9D98D28
:10155800A380B7C003C707C0136787002380E7C00D
:10156800828093C5F5FFF98DA380B7C08280CC41F6
:10157800411106C6328503C6150083C5050022063B
:101588004D8E42068D654186138875A2630C060F41
:101598006348C804138845A26306060B634AC8005B
:1015A800938535A26309B60623900600294679A0DB
:1015B800138855A26308060B938565A2E316B6FE49
:1015C800C1451D4663ECE5064546198E63F3C70021
:1015D8003E862390C60097A501009385A54089A85B
:1015E800138895A26300060F634E060B1388A5A205
:1015F800630A060F938505A5E318B6FA99451D46B3
:1016080063EEE502198E63F3C7003E862390C60099
:101618009385818031A89D451D4663E1E5022146F9
:10162800198E63F3C7003E862390C6009385818692
:10163800BA9597300020E78060890146B24032852C
:1016480041018280AD451D46E3EAE5FE3146198E2B
:1016580063F3C7003E862390C60097A501009385D3
:10166800253CF9B7B1451D46E3EAE5FC3546198E38
:1016780063F3C7003E862390C60097A501009385B3
:10168800253B7DB7C1451D46E3EAE5FA4546198E77
:1016980063F3C7003E862390C60097A50100938593
:1016A800A53579B7C1451D46E3EAE5F84546198EE3
:1016B80063F3C7003E862390C60097A50100938573
:1016C8002538BDB7C1451D46E3EAE5F64546198EFE
:1016D80063F3C7003E862390C60097A50100938553
:1016E800E532B9B7B5451D46E3EAE5F43946198E42
:1016F80063F3C7003E862390C60097A50100938533
:10170800652D3DB7973600209386862B4146CD45FB
:10171800173500201305C5176F60F06541119396C2
:101728002500AA852D4506C697200020E78020477A
:10173800B240014541018280411122C426C24AC0FB
:101748002A842E89B284AA8593060020014625455D
:1017580006C697200020E780804493162900268635
:10176800A285294597200020E7806043B2402244A3
:1017780092440249014541018280011122CC06CEE2
:101788003714004026CA4AC84EC652C4834474055A
:10179800034AB40583498405034994053D3C8347BE
:1017A800A40593F4F40F137AFA0F93E71700230DA7
:1017B800F40493F9F90F1379F90FB717004003C729
:1017C800A705058B6DFF03D5C705A38D4705238C9A
:1017D8003705A38C2705A38B9704F2406244D244B3
:1017E8004249B249224A0561828041119397050115
:1017F80022C406C6C1872E8463DD0700EF00B04F00
:1018080019C1EF00B0482165218DB2402244410141
:10181800828093F7150013C51500E5FB9397250102
:1018280063DF0700EF30A17B37F60200130606E0FE
:10183800896503C53178EF1060250965F1B793977D
:1018480015010145E3D307FC17A50100130505257C
:10185800EF80B17D13060064916503C53178EF1000
:10186800E022116555B71D71494697A5010093857A
:10187800651E17A501001305E55A86CEEF007068AE
:1018880001E917A501001305251EEF80117A01A0B3
:1018980037F700E0F9575CC7FD571CCB8566B7E7FB
:1018A80000E023A0D7101306701010C3B8434146B8
:1018B800B0C323A0D718B8C3010001001306C003A2
:1018C80081454808EF00D05D974700209387872B14
:1018D8003ECA896793870780231CF100ED47A3015F
:1018E800F102930750102312F1028146D1470146B5
:1018F800814521452303F10297200020E780202A13
:10190800A167938707E03ECE97070000938747E1DA
:10191800BEC497070000938767E2BEC6B547230891
:10192800F102B7F5070097070000938787B23EDA00
:10193800814697070000938787E47000E105194501
:101948003EDE97200020E780802558088147994689
:1019580070003E960346060085070507A30AC700E0
:10196800E398D7FED24791C7035781018567637310
:10197800F70001A04808EF108048AA8501C917A5FB
:1019880001001305A50FEF80B15801A0F6402561AD
:101998008280411117050000130565E506C622C4BB
:1019A800EF102043138431782300A400292803452D
:1019B80004002244B24037F60200130606E08965A7
:1019C80041016F10A00C411106C6B717004013075C
:1019D80070052380E704130780FA2380E70403C710
:1019E800F7021305407E814613677700A387E70255
:1019F800238007040147814705468545EFF07F802E
:101A0800B240014541016F10C067797126D206D6F0
:101A180022D44AD04ECE52CC03C88500A1441378B4
:101A280008026311080683C8050009482E8481440A
:101A3800639A080503A84500AA89328A83471800D3
:101A4800034808003689A207B3E70701C2070D68F3
:101A5800C187130828906380070581440357A400B1
:101A68009737002083D727FC631EF70093870187E9
:101A78009C4389CB0D473AC22316210152C44C001E
:101A88004E858297B2502254268502599254F249C3
:101A9800624A456182808547EF407078AA845DFD7F
:101AA80093870187984355DB83471A0083460A00CA
:101AB8004C00A207D58FB337F00085073EC24E858C
:101AC800029769BF011117A50100130565FD22CC16
:101AD80026CA2EC606CEB28436C4EF801155B2454A
:101AE800214483C78500C18B9DEF03C60500894744
:101AF8000144A2466319F602D841834717000347F9
:101B08000700A207D98FC2070D67C187130727905F
:101B1800639BE700CC452390C6002685094697209D
:101B28000020E780A03A2285F2406244D244056151
:101B3800828041677917630CE502411122C406C609
:101B480085472A84639AF50022852244B24093850A
:101B5800C1A341016F60102D89476396F500854543
:101B6800EF80F04475D1B2402244410182808280E6
:101B7800411126C2AA8441659385C1A37D1506C675
:101B880022C4EF60302A170500001305C5FAEF805C
:101B9800D03997360020938666E94146994517352E
:101BA80000201305A5E2EF60101D2A8419C517A5AA
:101BB80001001305A5EFEF8051472285B24022446A
:101BC80023A8918692444101828041119385C1A343
:101BD80006C6EF40905FB2407D15133515004101F0
:101BE8008280411122C42E849385C1A326C206C6D1
:101BF800AA84EF40905D058915C197370020938727
:101C0800E7DC83D7A702A285B2402310F400224460
:101C180026859244014641016F50F036B240224475
:101C280092444945410182808357250003550500A8
:101C38003385A740420541818280AA8705C21307E0
:101C4800F6FFB376C700054599EA23A00700CCC381
:101C58002394C7002395E7000145828005458280CB
:101C6800232005008280AA871145B5C72DC683D6D3
:101C7800070003D787000D45369783D62700158FB1
:101C88004207418329CB0145B9C5835606006373D2
:101C9800D700BA86C206C1820147131507014181E0
:101CA8006366D5002310D600014582803385E500A0
:101CB8008348050003D8A70003D527000507337814
:101CC8000501C84342952300150103D527000505E2
:101CD8002391A700D9B782802A8729CD835605008A
:101CE8008357A500B697835625008507958FC207A9
:101CF800C183BE866373F600B286C206C1820D45F3
:101D08009DCB81476394D700014582800356270005
:101D18000355A70003C805008507718D5043C20706
:101D2800C1832A96230006010356270005062311BE
:101D3800C700C9BF11458280AA871145B1CF29CEF6
:101D480083D6070003D72700158F8356060042075E
:101D580041836373D700BA86C206C18209450DCF95
:101D680001476366D7002310D6000145828003D55A
:101D7800070003D8A70033780501C84342950348F4
:101D880005003385E50005072300050103D5070095
:101D980005052390A700F1B7828029C503570500E0
:101DA80083572500998F3E87C207C1836373F60066
:101DB800328742074183814763E4E7000145828017
:101DC800835605000356A5008507758E5441B296C3
:101DD80083C606002380D500835605008506231098
:101DE800D500D9BF114582802A86B305B04017A512
:101DF80001001305A5DC6F80B11183D74189639079
:101E0800A702239BB188239CC188239DD1882E8655
:101E180017A50100130505D7BE856F80710F17A59B
:101E280001001305A5D76F80512003574500011104
:101E380006CE83D741896315F702C167F91723AA2C
:101E4800F18823AC018885471306F1008545130501
:101E58005030A307F100EF70F154F2400561828021
:101E680017A50100130505C8EF80311CFDB7411106
:101E78009397050122C406C626C24AC0C1872E848C
:101E880063D1070203C55181EF00E06619C1EF0075
:101E9800E05F2165218DB24022449244024941010C
:101EA800828093F7150091CF173600201306C6B825
:101EB8009385018803C55181EF70B127134514003C
:101EC800D9BF93F7850099CF83C75181130740067F
:101ED80081465146A14503D54189EF70F11E13454E
:101EE800840055BF93F705010145D5D79387018233
:101EF8009C4385446389970081C70D496377F9102E
:101F08001345040149BF03D54189C13103D741892C
:101F180009E9C167F917E315F7FE1385C124893369
:101F2800C5B73A85EF1040697515239EA1881385BA
:101F3800C124DD3983D7C189636CF5081385C124B1
:101F4800E531AA8517A50100130545BAEF80417C44
:101F58001386C189938541461385C124F13B1375C6
:101F6800F50F23A0018A49FD03D6C189014781469F
:101F7800ED4503D541892397C188EF40006123A827
:101F8800A188630E050C03D6E18893854146972006
:101F98000020E780A0F39385C188014603D54189D5
:101FA8008931AA8529CD17A50100130525B6EF802B
:101FB80021768D4723A0F182ED451385C188EF4036
:101FC80080740946C14503C55181EF00302C0DBF0F
:101FD8009384018A9840A947E3ECE7F61146C14586
:101FE80003C55181EF00902A9C4017A501001305F5
:101FF800E5B0850723A0F18AEF80310311B7854743
:1020080023A0F182239E01886DBF03D6C1890147B1
:102018008146ED4503D541892397C188EF40E056B5
:1020280023A8A1880DCD03D6E18893854146972042
:102038000020E780A0E99385C188014603D541893E
:102048004D36AA8511C917A501001305E5ACEF8027
:10205800216C23A021838DB723A0918265B789477E
:1020680023A0F182B9BF7D15954763E2A71217A790
:1020780001001307A7A50A053A951C41411122C47E
:1020880006C6BA972E84828717A50100130585B462
:102098002244B24041016F80417903C72500994726
:1020A8006314F7002E85513317A50100130585B376
:1020B800C5B703C7250095476317F70CC16703D752
:1020C8004189F91703D5A500630FF700EF70915206
:1020D80017A50100130505B2EF80217517A50100AA
:1020E8001305C5B375B7239AA18883D7E500096698
:1020F80013060690239BF18883D7050103C55181F8
:10210800239CF18883D72501A145239DF188EF0001
:10211800F0170356E4008355A40017A50100130522
:10212800A5AEEF80E15E5DBF17A501001305C5AF41
:1021380085B783C5250091476397F50017A501006A
:10214800130505B0B1B79947639FF5002285F139AA
:102158008345640017A50100130545B02244B24029
:1021680041016F80E15A9547639AF500834714004F
:10217800F1F717A50100130525B019BF17A5010030
:10218800130505B0E1BFB24022444101828082803C
:102198000111680006CEEFF08FA883C7E18989CBCB
:1021A8000946C14503C55181EF00500E238F0188B0
:1021B8003245EFF08FA8B745004083C7B5C01D472B
:1021C800636DF70083C7B5C02146938585C01D8E12
:1021D8004206418213858145C936F24005618280F5
:1021E800411113060020938581251385814506C674
:1021F80022C4A1340566130606809735002093850E
:10220800A5C41385C124EFF05FA3371400408327CA
:10221800840A8D451305000293E707022324F40A74
:10222800EFF06F918327840A8545414593E70701BD
:102238002324F40AEFF02F90EFF0AFAD9545054554
:10224800EFF04FB0B2402244B7E700E0114723A2B5
:10225800E7104101828001112317B1001306E10044
:10226800AA851385814506CEEFF0FF9FF2400561F0
:1022780082809C41011106CE22CC09476383E70284
:102288000D476386E70205476399E700AA8517A506
:10229800010013052589EF80A147F24062440561DA
:1022A8008280AA8517A501001305058AEDB72E843B
:1022B80083D5850017A501001305458BEF8041459F
:1022C800835784004C401306E1001385C12423176B
:1022D800F100EFF05F990946C14503C55181EF0050
:1022E800E07A835584004840BD3745BF0111170582
:1022F8000000130505B806CE22CC26CAEF00702DC3
:1023080093845181994705442380A4002315F10043
:10231800130691009307803E854513055030231618
:10232800F100A3048100EF70F107172600201306BF
:10233800E672E54513057030EF70D106138681818A
:102348009D4513056030EF70F1051306A10089451E
:1023580013051031EF701105700089451305203100
:10236800EF705104172600201306C66DD5450145A8
:10237800EF30D05D9305000A0D45EF2040349305FA
:10238800000A1145EF20A0337000914513057040F5
:10239800A303810023048100A304810002C623054E
:1023A8000100EF60A15D130671008545130500402B
:1023B800EF60C15C3000854513051040EF60015C9B
:1023C8001306A100854513052040EF60215B130625
:1023D8009100854513055040EF60415A7D55EF3017
:1023E80050647D55EF60E020EFF0CFB11705000095
:1023F800130565E8EFF0CFF7C16713874189F9172F
:102408001CC32322070013858187EF50417303C53E
:1024180004008545B126F2406244D24405618280B9
:1024280041111305800406C697100020E780C048B4
:10243800371700408327870A8D451305002093E747
:1024480007202324F70AEFE01FEFEFF06F8617A5A8
:1024580001001305259DEF80413DEFF0CFC0EFF05F
:102468004FD3EF70711B5935A53B97100020E780BB
:10247800606623AC05FE1C4181E70CC18280BA87E7
:1024880003A787FF6DFF23ACB7FE82801DC183467B
:10249800E5FF1307F00F9147639EE600411106C65A
:1024A80097200020E780A034B24081473E85410153
:1024B800828095473E85828001E9014582800145F9
:1024C800B240224441018280411122C42A8421055C
:1024D80042059305D004418106C697200020E78075
:1024E800402571DDFD5723200500231285002303B5
:1024F800F5002105F1B71387418A1C43411122C415
:1025080026C24AC006C601440149BA8491E7A165BA
:10251800EF00E06D0DC401A803C7E7FF6318A70229
:102528001DC8A165352C9840832784FF6317E402F2
:1025380023A2F18AFD57232C04FE230FF4FE2285E3
:10254800B2402244924402494101828011E03E890E
:1025580083A787FF65BF3E84E5BF232CF9FED9BF5B
:10256800B9C5411122C406C62A8483C7514B2E859A
:102578006368F400213F0D45B24022444101828046
:1025880083A785FF99E703C7E5FF9307F00F630566
:10259800F700ED3D1545CDB7238F85FE1385418A9C
:1025A800C93D22852244B240A165410155AA15457D
:1025B800828023A2018A82809387018C9C4399E3BD
:1025C8003E85828003D727006316B70003C707003C
:1025D800E308A7FEDC47E5B74111939705014AC018
:1025E80006C622C426C2C1872E8963DE07002137AA
:1025F80011C1693D21653345A900B2402244924486
:10260800024941018280AA860145E5D901443D4736
:10261800B3578940858B95CB9387018B8443BD47FE
:1026280091E28147A2978E070545BE943315850030
:10263800131405019C40C8404180829723A00400E0
:1026480023A20400334524014DBF0504E312E4FC32
:102658000144CDBF938781479C53411122C406C6CC
:102668001384418295C7829723A2A1820840B74765
:1026780003009387D73F3305F502B7A72600938752
:1026880037ECB24022443E9523A2A18241018280C8
:102698009387414B18409C4BBA9723A2F182F9B714
:1026A8002A9609E582800505A30FB5FEE31DC5FE40
:1026B800D5BF81473307F5000307070019E33E85B7
:1026C80082808507C5BF01112E8626CAAA841315E4
:1026D80006019305F004418122CC06CE32C697202C
:1026E8000020E78000052A8419C53246A685971080
:1026F8000020E780A07D2285F2406244D244056133
:10270800828081476314F600054582803307F5000F
:102718008507B386F5000347070083C6F6FFE38302
:10272800E6FE014582809307F6FFBE952A9663135D
:10273800C5008280FD1583C715000505A30FF5FEAA
:10274800FDB7814711E9014582803307F50003474A
:102758000700E31AB7FE8507E319F6FE05458280F0
:1027680083C7514B637FF5001387818A9317150040
:1027780008433E9583570500DD8D2310B5000145BC
:1027880082800D45828079714ECE06D622D426D21B
:102798004AD052CC56CA5AC883C7B16B9389016BC9
:1027A800B5C383C7716BB9EFA38D016A03C4A16B6D
:1027B8008947631EF40893870160B8433E848346C3
:1027C8007700A9C203465700B755550037C5898E0B
:1027D80093855555130565EDEF20815B03C7716B34
:1027E8009307D7FF93F7D70F91E7238DE16A8547C2
:1027F800A38DF16A8947A38BF16A3C40130710FA4D
:102808002383E7009387C18B9C4385CB82972A8AD1
:102818000DC59384414B9C4813898147814AAA97E7
:1028280023A2F14CFD5723A0F14C9387018C8043E0
:1028380051E883274902639A070EB25022549254F2
:102848000259F249624AD24A424B456182808D4719
:10285800631AF40293840160BC4403C777005DD314
:1028680003C65700B755550037C5898E938555550A
:10287800130565EDEF20C151A38B816ABC44130792
:1028880010FBBDBF9547E31FF4F61387816E83479E
:10289800E700918BA5DB83C7C16C858B03C6B16E3E
:1028A80083C6A16E89CF484319C983451500090518
:1028B800EF20711121D98547A38DF16AA1B7814510
:1028C8000145FDB7184481476374EA00B3074741DF
:1028D800032749021CC411C7D84463F4E70023A0A6
:1028E800F14C85EB8355240099ED5C44639C0A0206
:1028F80023A0F18C032BC400228597200020E780B9
:1029080000EF5A8435B703450400993D5C4081CBFC
:102918001CC483572400F1DBA28A404411BF1C4425
:10292800E9D7C5BF23A6FA00F1B79387818A9043F8
:1029380083C6514B814713F7F70F636FD70683C7D9
:1029480079000D47F91793F7F70FE378F7EE83C788
:10295800416F918BE39307EE6800EFC0E07F7D57EE
:102968006304E50CB24703C4B148E378F4ECC4440B
:1029780083C7C1486380E406858BB9C7D147B38450
:10298800F402E37C94EA97100020E780A072B24733
:1029980063F3F400A68703C4B148818F3384A7008A
:1029A8008307490163CE0702B707C0A8636AF40228
:1029B800B70740573E942DA0850713971700329705
:1029C8000357E7FF2DDB95BD93079002B384F4020C
:1029D800858045BFE207E18763D00704330485405B
:1029E80003D5E18A97100020E780404C83274902ED
:1029F800228519E03705C0A882971375F50FE31EE5
:102A080005E283A78901E38A07E2EF20612CEF2022
:102A1800816EEF20C12015B5E37285FCB707C0A809
:102A2800338487402A946DBFDC44E388A7E00347DA
:102A38004901058B0DC351443384870283C7B148CC
:102A4800E3FD87DE97100020E780C06683C7B148A2
:102A58001D8C2A94B1B71304900233848702058031
:102A6800F1BF83C7514B6371F5021387818A9317AE
:102A78001500084393C5F5FF3E9583570500FD8D66
:102A88002310B500014582800D45828083C7514BD4
:102A98006364F50001458280411122C426C24AC000
:102AA80006C62A842E89B284013E01C504C505459F
:102AB8001DA0936504F0C205C181414597200020FF
:102AC800E78020C719ED938781479C5B81C7A28562
:102AD800114582970145B24022449244024941017E
:102AE80082809387018C9C438DE323A0A18C85472A
:102AF8002326050004C52311250123008500A30012
:102B0800F5002322050065B7BA87D84775FFC8C7FF
:102B1800F9BF45C539715AD0138B018B22DC26DAEF
:102B28004AD84ED652D45ECE66CA6AC86EC606DE8B
:102B380056D262CC3689328AAE89AA8401445A8D2B
:102B4800B94D854BF94C03270B00131C3400937ABD
:102B5800F40F62971C43A9EF13B5FA00134515004B
:102B6800B3978B0063F65D01930714FFB397FB00DF
:102B780093950701C1815286113F1DC983270D0016
:102B88000145E29784C323A23701630409002300A7
:102B98005901F2506254D2544259B259225A925AA7
:102BA800025BF24B624CD24C424DB24D21618280A5
:102BB8000504E31A94F92145E9BF094582804111CA
:102BC80022C426C24AC006C6AA842E8932847D3D04
:102BD800CA852685EFF05F9E09C940C10145B2400C
:102BE800224492440249410182802145CDBF4111CE
:102BF80022C426C24AC006C6AA842E89EFF0DF9BEB
:102C08002A8419C123110500CA852685993D0145E5
:102C180011E01945B24022449244024941018280A0
:102C28007547636BA7041387018B1443411126C2B0
:102C380093143500A696944222C406C6AA873A84FD
:102C4800094595C613B5F700394713451500637351
:102C5800F700C5178545B395F500C205C181413F09
:102C68001C400145A69723A0070023A20700B240F5
:102C7800224492444101828009458280411106C65E
:102C8800EFF09F9309C50845B24041018280014594
:102C9800E5BFF54763EDA7049387018B9C431317A2
:102CA8003500BA979843894721C7011126CA06CE2D
:102CB8009334F50022CCB94793C4140063F3A700FA
:102CC800451505443314A400420441802EC62685C8
:102CD800A2856D378947324609C5A28526857D3389
:102CE8008147F2406244D2443E850561828089472B
:102CF8003E858280411106C623AEA18A0295B24064
:102D080023A4A14C014541018280854763E7B700B0
:102D18008A059387418BBE9588C18280411106C67A
:102D280022C426C2EF704116214681451385418B86
:102D3800EFF01F971384414B13060002228581454B
:102D4800EFF01F9623A0018C23AE018A83C7414967
:102D580013D527008D8B3E958D473305F50299478E
:102D6800930510109384418C35051375F50F2301D5
:102D7800A4003305F5021305050F97200020E7800E
:102D8800409B23A8A18A834724001305050F88C008
:102D98008A073E9523A4A18AEFF0BF811D2E8347A1
:102DA80014009840170600001306468393962700E0
:102DB800BA9690C293862700850793F7F70FA3006A
:102DC800D400B24022448A07BA9790C39244410182
:102DD800828083C7514B03C7614B63FFE7001387AA
:102DE800418C184393861700A38AD14A93962700EB
:102DF800369708C33E8582809307F00FE5BF4111DF
:102E080026C2044106C622C44AC08947638D040EFF
:102E18004177658FB706002089476316D70E035997
:102E280045006302090E2A8419469305F00F5905D7
:102E3800EFF03F9105478D476307E50C4A868145CA
:102E48002685EFF0FF851306C0038145138581476A
:102E5800EFF01F851306C003A285138581479710DD
:102E68000020E780A00683D741481387814789E778
:102E7800930700202392F14883C7614881E785477B
:102E88002383F14883C7714881E7ED47A383F1485D
:102E980083C7814881E795472384F14883C79148D0
:102EA80081E78547A384F14883C7D14889E78347E9
:102EB8000701A386F14883C7A14881E7D147238545
:102EC800F14883C7614989E793078002238BF1485A
:102ED8008D4683C76149B3D7D70283C6B1489DEAF7
:102EE8009387D70293F7F70FA385F1488347D40157
:102EF80081E78947A38AF1481C5781C78297239D98
:102F0800A14A293D8147B2402244924402493E8564
:102F18004101828083463401B697E9B7411106C65C
:102F280097100020E780001983C6C148858AB1C27E
:102F3800930730333307F502B337F5023983CA07ED
:102F4800D98F1387414B584B01456301F7023385ED
:102F5800E740636BF70037653D0889C637856F081A
:102F680013050590198D3E9523A4F14CB2404101FB
:102F78008280E5473307F502B337F5022583DE077C
:102F8800C1B7011122CC06CE2A842EC6EFF08FECF1
:102F9800B245F240818D33A5A5022295624413758E
:102FA800F50F05618280011122CC06CE2A842EC637
:102FB800EFF04FEAB245F240818D33A5A502229584
:102FC80062444205418105618280011122CC06CE0E
:102FD8002A842EC6EFF00FE8B245F240818D33B552
:102FE800A50222956244056182809387814798579C
:102FF80031CB411122C426C206C6BE84029703D72C
:10300800A14B2A8435C7BA876373A700AA87C2076A
:10301800C183BA866373E400A286C206C182958F13
:1030280051476357F704DC5491C382978547238C33
:10303800F16AEF10D17A239D814AB240224492442A
:103048004101828083C7816B8DE39387016B83C7BE
:103058009700850793F7F70FA38CF16AA18B8DC3AF
:103068008547239CF16A6F10F17CA38C016AE5BF48
:1030780083C7816BF9D32244B24092444101E5B73A
:10308800828093878147D857011122CC06CE3E848F
:1030980001C72AC60297324509CD23A4A18C17057A
:1030A80000001305E5E7B931F240624401450561C6
:1030B80082808307440163D907009717002093870C
:1030C80047FB23A4F18CE1BF97170020938787FE65
:1030D800CDBF011122CC13848147084406CE26CAED
:1030E80019E50545F2406244D244056182805C5886
:1030F800EDDB185C7DD77000854582971844B24790
:10310800E301F7FE8357C40003C561489305E00453
:103118003305F5029384414B420541819710002005
:10312800E780206123A8A14C4DDD83D7414803C621
:1031380061483306F6029305F00FEFF06FD6D04CD6
:10314800084483D7414808C283C56148B385F5025E
:103158001C5C89818297C84C97100020E780206901
:10316800014523A8014CBDBF411122C413848147E6
:103178001C4426C206C69384414BA9CF1C5CB9CB1C
:10318800DC4C8DE38357C40003C561489305E00414
:103198003305F5024205418197100020E780605908
:1031A80023A8A14CC84C1DC583D7414803C6614814
:1031B8003306F6029305F00FEFF08FCED04C08449B
:1031C80083D7414808C283C56148B385F5021C5CB2
:1031D80089818297C84C19C597100020E780206123
:1031E80023A8014CB2402244924401454101828007
:1031F800011126CA9384414B22CCC04C4EC652C4FE
:1032080056C206CE4AC8AA8AAE89328A31E41389E0
:1032180081478327890099E3A94441A08357C900BE
:1032280003C561489305E0043305F5024205418171
:1032380097100020E780E04F2A8441C18327490383
:10324800ADCF83C5614803D74148B385E5022A86D7
:10325800032589008981829791451307A0058981F3
:1032680093972500A29783C607006395E60483C653
:103278001700639E560385058A054E86A2955285DA
:1032880097100020E78080C4DC4C81446387870066
:10329800228597100020E7808055F24062442685F9
:1032A8004249D244B249224A924A0561828083D572
:1032B800270075B7DC4CE38187F62285971000203C
:1032C800E780E05291BF93878147984729C39C5F65
:1032D8009DCF8546631DD502411122C41384414BFD
:1032E800504C06C60DC283D6414883C56148B38594
:1032F800D5023A8589818297484C97100020E7804B
:10330800004F23A8014CB2402244410182808280B0
:103318009387414BD84F011122CC26CA4AC852C4C0
:1033280006CE4EC62A89AE8432843E8A21EF93891E
:10333800814783D7C90003C561489305E004330575
:10334800F5024205418197100020E780803E23A8BE
:10335800A14C2A8611E92945F2406244D2444249E7
:10336800B249224A0561828003A5890001CD83A75D
:10337800490389CB83C5614803D74148B385E50232
:10338800898182970325CA0191461308A005FD5536
:1033980093D72600C207C183139727002A970346AD
:1033A8000700631B0603834817000356270063932F
:1033B8002803B306D64063CD960085078A073E9555
:1033C8002686A28597100020E78040B0014569B79E
:1033D800A300B700B2866DBF03D6414883C56148D4
:1033E800B385C502338696001106E3E6C5F6138653
:1033F8003400719A1106B29623000701A300270131
:103408002311D7005DBF0145828083C705002300D3
:10341800F50083D72500A300F50083D72500A183F5
:103428002301F50083C74500A301F50011458280FB
:1034380023A8018C23A6018C828029C1411126C2B0
:1034480006C622C4AA8401458DC52E84228541461C
:10345800979501009385858397100020E78000A742
:1034680083C7040005452306F40083C71400A30698
:10347800F400B24022449244410182800145828096
:10348800011122CC26CA06CE0947AA843284638158
:10349800E50441468147639BC500638FE600639757
:1034A800B6000DA841478147638EE600F2406244AA
:1034B800D2443E85056182808A852285BD3F41468A
:1034C8008A8519A88A85953F41468A85228531A033
:1034D800E39AB6FC2E86A2852685EFF08FA2AA87EE
:1034E800F1B723A8A18C8280011122CC0354650076
:1034F80006CE26CA4AC84EC641C083298500AE8476
:103508002A8803C909008147131789016187635510
:103518000702B147054563FA87045114420403556D
:103528002800418033878900A2864E868545EF9022
:103538005026B337A00085077D141355690042044F
:1035480005891379F90341802380F400A380A4003E
:103558002381240123928400014719C0138719008D
:1035680098C409476383E7000145F2406244D244A6
:103578004249B249056182800545C5BFC167F9174F
:10358800630AF502D94763F7B702011122CC2EC6A8
:1035980006CE2A84EF509022B2456368B500228592
:1035A8006244F24005616F708023F2406244054531
:1035B8000561828005458280C167F9176314F500AB
:1035C8006F50D01F411106C6EF70601111E15D45C3
:1035D800B2404101828039714ED656D25AD006DEA9
:1035E80022DC26DA4AD852D4AA8A2E8BB28941EF35
:1035F80036C6D9379145EF50D02BAA844D492DC9ED
:10360800B246054A238034010544630A0B00B68597
:1036180013851400029B0505131405014180E20976
:1036280093D9894163D30902C1455685EF702018A3
:10363800654905E933868400A2852685EF9060599F
:103648002A8905E131044204418091472C085685B6
:10365800231CF10026CE231D8100EF60702E2A89DD
:1036680001C963070A00268597100020E780201803
:10367800F25062544A85D2544259B259225A925A47
:10368800025B21618280BA84014AADBF011122CC5C
:1036980026CA4AC84EC606CE2A893284B689253F2C
:1036A800AA8405E19387018D9C4381CF0547631761
:1036B800E40003C4090005041374F40FA2854A85C5
:1036C8008297F240624426854249D244B249056154
:1036D8008280AE860147054697050000938525D36D
:1036E80075B7011106CE2EC6EF60F07B01C9B24551
:1036F800F2400355250005616FA0602DF240494551
:1037080005618280A38E018E238E018E23A2018EF5
:1037180023A4018E23A6018E23A8018E23A0018E47
:1037280023AE018C9387414D3707B40098C33747C0
:10373800A000D8C3370710009306070A94C7B70636
:103748005000C106D4C7930607054107D8CB3707F1
:10375800D007410798CF37070F0098D337C707001E
:10376800130707B8D8D3416794CB9306070113070B
:1037780017F8D8D7417723AE070094D798DB828013
:10378800011126CAAA84214522CC06CE2E8432C62F
:1037980036C43AC2EFE05FD21DC9A246124732468C
:1037A800930700FD2300F5009947A3009500230126
:1037B800F5002303D500A303E5002312C500AA855D
:1037C80022856244F240D24405616FE07FD9F2401D
:1037D8006244D2440561828023A2A18E828023A400
:1037E800A18E828023A6A18E828023A8A18E8280AA
:1037F800011122CC4AC806CE26CA2A890144B3043C
:1038080089006368B400F2406244D24442490561C9
:1038180082802EC6EFE01FE493170501C183A183C0
:10382800B2452380F4009307140093F7F70F85043B
:1038380063F9B700CA9709042380A7001374F40F2B
:103848007DBF3E847DBFC16703D5E150FD1763008E
:10385800F502411103C641989385418F06C6EF6072
:10386800904FB240FD572397F150410182808280EA
:1038780009C925151375F50F1335850E1345150060
:1038880082800145828023800500F94763E2C708EA
:10389800797122D426D24ECE56CA5AC806D64AD0F4
:1038A80052CC5EC63684B289AE8A2A8B814463FFC5
:1038B8003405B307940003CA070013891400137969
:1038C800F90F63050A04B3072A0163C1F904B307B2
:1038D800240183CB07005E85613F0DC99307FAFF7A
:1038E8002380FA0063906B03130519002295B250E8
:1038F800225492540259F249624AD24A424BB24B7C
:1039080045618280D29493F4F40F55B70145C5B749
:1039180001458280411126C2AE8422C423AEC15023
:1039280023ACB15023AAA1502A8441469305F00F35
:1039380026854AC006C60549EFE0BFE0631A25039D
:1039480093878150884BC145653541469305F00FF3
:103958002285EFE01FDF8544631495022244938794
:103968008150B24092440249C847C145410149B516
:10397800414681452685EFE0DFDCE31825FDC9B720
:10398800414681452285EFE0DFDBE30995FCB24043
:1039980022449244024941018280411122C426C234
:1039A8002E84AA841306000281451385815006C619
:1039B800EFE01FCFA3859150A3838198EFA0A002C9
:1039C800854719C181474945B24022442384F150B3
:1039D800924441018280814781CD19C98547631B83
:1039E800F50083C7550093E707FCA382F5008547D8
:1039F8003E85828089476317F50083C7550093F792
:103A0800F703E5B70D478547E314E5FE03C75500FF
:103A18001377F70313670704A382E500D1BF814733
:103A28008DC105C103C755009306000C8547137760
:103A3800070C6308D700930600048D476303D7007B
:103A480089473E858280411122C4005D06C626C290
:103A58001DC8AA84085009C597100020E78020D9FE
:103A6800485009C597100020E78060D8085409C558
:103A780097100020E780A0D7228597100020E780C4
:103A880000D723AC0402B240224492444101828010
:103A980009E983C7A1501385015291C71385418D48
:103AA800828013850152828003C5A150828093874A
:103AB8008150C847828093878150884B8280938742
:103AC8008150DC4B8843828093878150D84B1C43BC
:103AD80085071CC303C5B1509307F00F6305F500B4
:103AE80091656FE0FFC78280011122CC06CE2E843B
:103AF80032C6EF60504A9147B245631FF50093877D
:103B0800018F9C438DC303A30700630E0300228526
:103B18006244F240056102839387818E9C4381C78A
:103B280003A34700DDB7F240624405450561828082
:103B3800011122CC2A840355450006CE26CA4AC85C
:103B48004EC6EF60D02D35C12A89834405008349CC
:103B5800C500D53D4A85EF70501D03554400EF6000
:103B6800103F83C7C18FB1C76395970483C5D18FB1
:103B78002685EFF01FB719E1238E018E0355440007
:103B8800EF6070419147631BF5000357440083D7EA
:103B9800E1506315F700FD572397F150F240624456
:103BA800D2444249B2490561828081499304F00FA9
:103BB8004DBF9307F00FE383F4FC8346640003567C
:103BC8004400034524004E87A685EFF07FBB7DB7F0
:103BD80079715EC6AA8B2E8552CC56CA5AC806D6AB
:103BE80022D426D24AD04ECEAE8A328B368AEF60A5
:103BF800102379CD045D2A89E1CC9C50614599C395
:103C0800130540039C5481C7510542054181630552
:103C18000A00710542054181DC5081C759054205FA
:103C28004181EFE07F892A8445C561468145EFE0FF
:103C38003FA783C94150639409008349090093074A
:103C480000FD2300F400A947A30074012301F40038
:103C5800230364018C50231254011305840191C974
:103C680008C47146930A440397000020E7800026A1
:103C780056858C5491C948C45146930A450197000A
:103C88000020E780A0245685630C0A0008C8714606
:103C9800D285930AC50197000020E7802023568526
:103CA800CC5099C548C8594697000020E7800022A3
:103CB800A2854E85EFE0DF8A2254B2509254F24931
:103CC800624AD24A424BB24B4A8502594561A5BB6A
:103CD800B250225492540259F249624AD24A424B93
:103CE800B24B4561828001114EC6AA892E854AC809
:103CF80006CE22CC26CA2E89EF60701221C583C455
:103D0800415099E0834405001945EFE0EFFA2A8411
:103D180015C981451946EFE0BF98930700FD2300B8
:103D2800F400B947A30034012301F400231224014D
:103D3800A2856244F2404249B2492685D2440561CF
:103D48006FE01F82F2406244D2444249B2490561A1
:103D5800828039715ECEAA8B2E8526DA4ED652D451
:103D680056D25AD006DE22DC4AD8AE84328BB68AC6
:103D78003A8ABE8942C6EF60900A21C92A8941451C
:103D8800EFE08FF32A8431C141468145EFE05F912E
:103D980003C5415019E103450900930700FD2300BD
:103DA800F400BD472301F400B247A30074012312B5
:103DB800940023046401A304540123054401A305CA
:103DC80034015CC4A285EFE0AFF9F2506254D254DA
:103DD8004259B259225A925A025BF24B21618280AF
:103DE800797126D2AA8439454AD04ECE06D622D435
:103DF8002EC6B2893689EFE02FEC21C1B245930770
:103E0800000D2310F500B1472A842312B5002301C1
:103E1800F500CE851905194697000020E780000BAC
:103E280023062401A2852254B2500259F24913F5FF
:103E3800F40F925445616FE0AFF2B250225492549D
:103E48000259F2494561828003C7B1509307F00FC8
:103E58006307F706411126C2AA84394522C406C65B
:103E68004AC0EFE06FE52A8429C5930700FD2300C7
:103E7800F500A300950023010500938501520D0567
:103E8800194697000020E780600413898150835702
:103E98008900A28503C5B1502315F4008347190092
:103EA8002306F4002244B2409244024941016FE0E3
:103EB8002FEBB24022449244024941018280828021
:103EC800011156C2AA8A314526CA4AC84EC652C4EA
:103ED80006CE22CCAE84328AB6893A89EFE0CFDDAD
:103EE80039C52A842685EF6080731DCD03450500FA
:103EF800930700FD2300F4009D47A300540123010C
:103F0800F4002312940023134401231434012315CD
:103F18002401A2856244F240D2444249B249224A6D
:103F2800924A05616FE0CFE303C5B150D1B7F240C3
:103F38006244D2444249B249224A924A0561828087
:103F4800397162CC2A8C594526DA4AD84ED652D4D1
:103F580056D25AD05ECE06DE22DCAE8432C636C4D5
:103F6800BA8B3E8BC28A468A8359010403494104AD
:103F7800EFE08FD435C53246930700FDA2462300F3
:103F8800F5009547A301C500A30085012301F500AD
:103F98002A8419461105A9C2B68597000020E78032
:103FA800E0F223066401230A240123157401231770
:103FB80054012318440123193401A2856254F25094
:103FC8004259B259225A925A025BF24B624C2685E8
:103FD800D25421616FE0CFD88145EFE06FECD1B7C3
:103FE800F2506254D2544259B259225A925A025B40
:103FF800F24B624C2161828083C7A1509DC7411159
:10400800AA8519461385418D06C697000020E780CA
:10401800E0EB9385418D03C5A150EFF0DF9BB240E3
:104028001385418D41016F90901C0145828041119B
:1040380006C622C426C203C7B1509307F00F630413
:10404800F704AA842945EFE02FC72A840DCD9307EA
:1040580000FD2300F500A1472301F500A30095000A
:104068009387815083C727009385418D1105A30F3E
:10407800F5FE194697000020E78040E5A28503C5B4
:10408800B150EFE0EFCD03C7C15085476315F70284
:104098009387C18E9C4381C79C4791C382972244D2
:1040A800B24092445D6603C5419813060670914577
:1040B80041016FE0DFB0B240224492444101828066
:1040C800797122D406D626D24AD04ECE52CC094493
:1040D80045C92A89035505002E8A5144EF602054AA
:1040E800AA8459CD83C77198FD1793F7F70F054731
:1040F80049446377F7080347C500A1476314F700ED
:1041080063100A089C5C4544A5EF91659385457149
:104118001305C00297000020E780A06188DCAA8907
:104128004D4439CD1306C0028145EFE06FD7835760
:1041380009009386490036852391F9007146930555
:10414800490036C697000020E78040D88947238079
:10415800F90003C5C400B24603560900611583C5BA
:10416800419813351500EF8010562A8463060A001B
:10417800D2852685EF70806601C42685EFF0BF8C56
:104188002285B250225492540259F249624A45613A
:10419800828083C77198FD1793F7F70F05476378F7
:1041A800F708894751C6011122CC26CA4AC84EC60B
:1041B80052C406CEAA89368AB2842E89EF60204678
:1041C8002A84D14729C9485509C597000020E780A6
:1041D8000062F1452685EFE00FCF48D4CD4705CDE5
:1041E8008346C40021478147639FE600630D0A00A8
:1041F8000347A5010356050193062501AA854E85A7
:10420800EF60F055AA8703474400630F090013675E
:1042180067002302E400F2406244D2444249B249B2
:10422800224A3E850561828013674700DDB7C9478A
:104238003E858280E14763E9A7009387414D0605E3
:104248003E9503550500828041657D1582800111E8
:1042580022CC2A842E8526CA06CEAE84EF60203C66
:104268000DCDB7470F009387F723094563E287020F
:1042780081450A854146EFE0AFC2A685231081003B
:104288000A85418023018100A3010100EF801026E7
:10429800F2406244D244056182804945D5BFA38279
:1042A800A19882806F80F03A797152CC2A8A32853F
:1042B80022D426D24AD04ECE56CA5AC85EC606D690
:1042C80062C4AE8BB28A368BBA843E89C289468470
:1042D800EF60E03415C92A8C63140A0213774B0087
:1042E8008347450015CF93E727012302FC008DEC97
:1042F800631C0902639A090205E8ED9B2302FC008E
:10430800832B8C03639F0B06B2502254925402599C
:10431800F249624AD24A424BB24B224C45618280F2
:10432800F59B93E70701D1B793E747002302FC0009
:1043380001CC1C484146A2852324FC0213058C01AC
:1043480097000020E78080B863910B02D5D8032539
:10435800CC0209C597000020E7806049F145268511
:10436800EFE06FB62326AC0261BFE30B09F8032523
:10437800CC0209C597000020E7806047F1454A85CF
:10438800C5B79DC483A70B0299EB916593853571D9
:10439800714597000020E780C03923A0AB0203A530
:1043A8000B0219C57146A68597000020E78000B268
:1043B8006388090283A74B0299EB91659385257160
:1043C800594597000020E780C03623A2AB0203A519
:1043D8004B0219C55946CE8597000020E78000AFEB
:1043E8001DC483A78B0299EB91659385157151457F
:1043F80097000020E780E03323A4AB0203A58B02DB
:1044080019C55146A28597000020E78020AC2254A8
:10441800B2509254F249B24B224CCA865A8602597B
:10442800424BD6855285D24A624A45616FF04FFAAF
:10443800011126CA52C406CE22CC4AC84EC62A8AC0
:10444800AE84EF60C01D35C1AA893945EFE0CF863B
:104458002A8421CD03C941506314090003C9090006
:104468009307000D2310F400AD472301F400938552
:10447800690013053400194697000020E78000A55D
:1044880093F71400858085882306F400A30694001A
:1044980023154401A2856244F240D244B249224A1B
:1044A8004A85424905616FE0AF8BF2406244D244CD
:1044B8004249B249224A056182809387C18D884367
:1044C80001CD411106C697000020E7804032B24076
:1044D80023AE018C410182808280011106CE22CC5C
:1044E80026CA4AC82EC6EF60801329CDB24503C933
:1044F8004150AA840CD563140900034905004145BD
:10450800EFD09FFB2A841DCD9307000D2310F500E3
:10451800A5472301F50083C754009385640011055E
:10452800A30FF5FE194697000020E780209A9C54B7
:10453800A285F2405CC46244D2444A85424905617E
:104548006FE00F82F2406244D244424905618280A2
:10455800797122D406D62A842EC6EF60400C0DCD80
:104568008346C5001147AA8749456393E6029C5FC5
:10457800B24599C383C567010808EF70202F978655
:1045880000009386E6B3100889452285EF60F02184
:10459800B2502254456182805145DDBF83C771986E
:1045A800FD1793F7F70F0547637AF704894721CA80
:1045B800411122C426C24AC006C6B2842E89EF60C1
:1045C80000062A84D14705C56308090083474500CA
:1045D80093E727002302F5004146A68513058401C9
:1045E80097000020E780808E9C481CD48147B24009
:1045F8002244924402493E8541018280C9473E8552
:104608008280797122D406D62A842EC6EF602001D2
:1046180001CDB2452285230EB1006C08EF708018D9
:10462800B2502254456182805145DDBF6F60A00CB5
:10463800C1671387E7FF6394E5029387818E9C43E4
:1046480091EB494582804945B2402244924402494F
:104658004101828003A30700E30503FE02834111A1
:1046680022C426C24AC006C6FD172A892E84B284EF
:104678006395F5029387818E9C4391CB9C4381CBB4
:10468800829711E5238E218FA38E918E75BFA68503
:104698004A85EFF00F854DF9F5B72E85EF50307844
:1046A8005DD1834705000D45E39027FB2285224411
:1046B800B2400249A685924441016F904031E147DA
:1046C80063E6A70441677D1789476382E5044111C2
:1046D80022C426C206C6C547AE842A84631AF500DA
:1046E8001305C0033385A50242054181EF90A0352B
:1046F800131514001384414D2295B240224423100F
:104708009500814792443E854101828089473E85D4
:104718008280011106CE2AC6EFE0DFFEEF00507757
:10472800EF00606CEF504132324593878150130798
:1047380000F02391E700238207007D579387419873
:10474800A380E7002380A700F240954505616F40EC
:1047580090125D7193970501CAC086C6A2C4A6C20D
:104768004EDE52DC56DA5AD85ED662D466D26AD0A9
:10477800C1872E8963DC074603C54198EFD0BFD7B0
:104788008964416A856A797B2A84938BD4007D1A6F
:10479800A50A691B15E021653345A900B6402644E2
:1047A80096440649F259625AD25A425BB25B225C7D
:1047B800925C025D61618280834704001307200ACE
:1047C800639BE7000355240003CCB1502286D285B1
:1047D800EFF08FB109AA1307100903CC5198639120
:1047E800E714834714001547639EE7002285EFF01E
:1047F8002FB42285EFD09FC903C54198EFD0BFCF12
:104808002A8449BF39476393E71403554400631367
:1048180055050C4483C90500639B0900850581C9BA
:1048280019461385015297F0FF1FE780206A03C7D6
:10483800815085476316F70E638809002384015069
:104848004E85EFF06FE075B789472384F150EF90FC
:10485800C01945B793872400631CF5048329840095
:104868006380090C83C7090089EF83C7290003C740
:104878001900A207D98F2398F15083C73900A38460
:10488800F15003C781508947631CF70883C70900A3
:1048980091C72384015003C5090065B78D4783C5B7
:1048A800915003D501512384F150EF40807FE5B743
:1048B800938754006318F5001C4403C50700EFF004
:1048C8000FF705BFB3076501C207C1831147636FBF
:1048D800F7009387C18E9C43E38D07F09C43E38ADE
:1048E80007F022858297E31605F01DA89387B40088
:1048F800631FF5009387418E9C43E38C07EE9C432E
:10490800E38907EEA2851385B4008297E9BF9387F0
:10491800C4006310F5021C4483C70700E38B07EC4F
:104928009307F00FE307FCECA2856285EFD05FC325
:10493800E1B59387E400E315F5FE9387818E9C43E8
:10494800E38907EADC43A285E9F365B53D4763954A
:10495800E70403554400E30275FF93879401E30ECF
:10496800F5FC93873401E31DF5FA83D7E150639E84
:1049780047019387818E9C43E38D07E6DC43E38AF6
:1049880007E6A2851385340149B79387018F9C43B5
:10499800E38107E69C43E5B71307E003E392E7F8F2
:1049A8008347240005476392E70E83476400138D0D
:1049B800C18DE1E383270D00D5CB03CC0700A149C6
:1049C80003457400930C8400E685EFF04F85834718
:1049D8004401A303A400835804010358E4000357C7
:1049E80044002A86034534003EC283572401E686E4
:1049F800E2853EC0CE87EFF0AFD48347340095E719
:104A0800DD47835804010358E40083467400835546
:104A180044003EC2835724013EC06687CE870546C0
:104A28006285EF50D06CA301A40083270D0081C7D5
:104A38001145EFF09FA803C5C18FE30C05DA83C5C4
:104A4800D18FEFE01FCAE30605DA834634009307E7
:104A58001003638AF600035644004E8783C5C18F4E
:104A68003685EFE0FFD1238E018E61B303CCB150C0
:104A7800B9B79387C18E9C4303CCB1509149A9D350
:104A8800DC439DDF0145829725BF29476399E708E5
:104A980083476400138DC18DBDE783270D00ADC327
:104AA80003CC0700A14903457400930C4401E68533
:104AB800EFE0FFF683470402A303A4008358C40170
:104AC8000358A401035744002A86034534003EC214
:104AD8008357E401E686E2853EC0CE87EFF04FC6F5
:104AE80083473400B9F3DD478358C4010358A40150
:104AF80083467400835544003EC28357E40129BFAE
:104B080003CCB15045B79387C18E9C4303CCB150B9
:104B18009149D1DBDC43C1DB0145829769B709477D
:104B2800639DE7009387418E9C43E38407CCDC4375
:104B3800E38107CC228582976DB92D476399E700F9
:104B48009387418E9C43E38607CA9C47D5B70D4798
:104B58006397E70022868D450355440095B91947A8
:104B68006395E7069305610113051031EF4031762F
:104B78002C0813052031EF409175035664008357C4
:104B880081010355440063E8C70083568400035736
:104B9800610163F7E60093050002EF80D06991B9DF
:104BA8006374E6002313E40063F4D7002314F400CD
:104BB8000357C4008356A400035684008355640039
:104BC80001488147EF80F0662DB11D47E39AE7D48D
:104BD80003574400E3E6E7D49387015C06073E9752
:104BE80083576400F1172310F7001DBB93F71500D6
:104BF80081CF9387418E9C4389C7DC4399C3014584
:104C080082971345190059BE93F7250081CF9387E2
:104C1800C18E9C4389C7DC4399C3054582971345D8
:104C28002900ADBE93F745000145E38907B683C760
:104C3800D150B1CBFD1793F7F70FA386F150A1E739
:104C48009387018E9C4381CF85472386F1509387B4
:104C5800C18E9C4389C7DC4399C3054582979387D6
:104C68008150C8472C08EF7090712808EFF0CFB832
:104C78009387414D83D72702914503C54198A38661
:104C8800F150EFD0DFF61345490009BE411122C4A7
:104C98002A84554506C6EFF0EFD9B335A000228522
:104CA8002244B24041016F80D055797122D406D692
:104CB8008D472E84631FF50003D7A50083D6850092
:104CC80003D665000345340083D54500EFF04F9FB8
:104CD80009A889671387D7006310E50403C5250071
:104CE80019E58547B25022543E85456182809387F5
:104CF800C18D9443FDD603C6360083C5060081489E
:104D080002C202C00148814701479106EFF04FA354
:104D18000545EFF08FFAF1B71387E700E303E5FCE9
:104D280013873701631AE50003C525005DD90147DC
:104D380081460146814559BFE507E304F5FA416715
:104D48007D178147E310E5FA03C75500C947E31A01
:104D5800F7F883D6E50003D6C5000355840083D54C
:104D6800A500EF80D04E21C15D45EFF0AFCC3335C3
:104D7800A000231EA10083454400035524007008A9
:104D8800EF50C07E8357C101A9FF0357E400835643
:104D9800C4000356A4008355840003552400014829
:104DA800EF8030473DBF8547231EF100E9B7C16753
:104DB8001387E7FF639DE5009387C18D9C4395C3E7
:104DC80083C707000D47639CA7006F80D043FD177A
:104DD80049476396F5009387C18D9C43FDF73A8553
:104DE80082804947EDBF2384019023A8019023A620
:104DF800019093878152170700001307E72398C390
:104E08001707000013070727D8C317070000130761
:104E1800275998C79387019017070000130767F968
:104E280098C317070000130787E8D8C382800111C9
:104E380022CC138401911C4006CE26CA4AC84EC60D
:104E480052C499CF2E8AAA84014908406312990254
:104E5800630C0A0497000020E780609923A801905A
:104E6800F2406244D2444249B249224A05618280F2
:104E780093194900B3073501884709C997000020ED
:104E8800E780E0961C40CE9723A407001C40CE97ED
:104E9800C84709C997000020E78060951C40BE9963
:104EA80023A60900050955B745DD13964400814539
:104EB800EFD00FFF144081477D5613F7F70FE371CA
:104EC80097FA1397470036972300C7008507F5B769
:104ED800011152C4138AC19083270A0006CE22CC3E
:104EE80026CA4AC84EC656C25AC0C9CF2A890144E2
:104EF80019ED93870191944399CA03C681902A8436
:104F080081479305F00F13F7F70F6367C708131569
:104F180034002105EFD04FDAAA8401E92145EFD00A
:104F2800AFD9AA8421C501444D49930700FD2380C8
:104F3800F4008547A38024012381F400A381840021
:104F48005DC41389840023A224018149938A0191B5
:104F5800130BF00F83C7819063F3F90031E88327BF
:104F68000A00A68503C50700EFD08FDF814503C57A
:104F78008190753D03250A0097000020E78020876F
:104F880023A60190F2406244D2444249B249224ADF
:104F9800924A024B05618280139747003697034770
:104FA80007006305B70005041374F40F8507A1BF54
:104FB80083A70A0093954900BE9583C705006384BB
:104FC80067032300F90083C71500130529007D1422
:104FD800A300F900194689051374F40F97F0FF1F11
:104FE800E780C0EE2109850993F9F90FA5B723A237
:104FF8000400B5B7411122C406C62A8405E1094553
:10500800EFF04FA32A8611C5854503C54198EFD017
:10501800FFA70545EFF09FC72A8401C9854503C549
:105028004198EFD0DFBC22856535B2402244054562
:105038004101828089671387B700631AE500938767
:10504800C1909C439DC39C4503C5070065B7138762
:10505800C7008147631CE5009C4503C507008547D9
:1050680011C59387C1909C43F5F381473E858280A3
:105078001D7186CEA2CCA6CACAC8CEC6D2C4D6C214
:10508800DAC05EDE62DC66DA6AD86ED663080526A8
:10509800834735002A8A95CB404105C85945EFF02A
:1050A8006F9993178501E187916B3EC40149938AF3
:1050B800C19093890191930C000D130BF00F138D80
:1050C800EB7183473A006361F902F6406644D644BF
:1050D8004649B649264A964A064BF25B625CD25C60
:1050E800425DB25D2561828083078402224763C1E5
:1050F800E72A83A70A00B5CB034704008547630B5B
:10510800F70603468400930694009305F1010545CC
:10511800EFE06FF7814719C1834705008346040014
:1051280011476381E60203A70A008D46034717006B
:10513800630AD70081CB19C70DC98546631FD702FB
:105148008D8B85C703451400130C2400E285EFE01E
:105158001F8DA300A40083A70900AA84814D95E7A9
:10516800034604009147631AF60C83A7090063916C
:10517800072239A48147014555B78946E317D7FE69
:10518800858BC1B7850D93FDFD0F83C7819003A55E
:105198000900E3F7FDFC93974D003E950347050092
:1051A800E30267FF03471500E31E97FC1946E285F3
:1051B80009053EC6EFD0EFD4B24769D583A40900EC
:1051C80003470400BE94C9DC9147631CF708C84430
:1051D80005C583478400034605006306F6080347B0
:1051E80004009147631FF708C84419C597F0FF1FCB
:1051F800E780E05F23A6040003458400EA850505EF
:1052080097F0FF1FE780E05205C503470400914768
:105218006312F708C8C48347840093059400050502
:10522800A30FF5FE0346840097F0FF1FE78000CA2E
:1052380083478400639207140DBF83A7090095D79D
:1052480083C581900147E302B7F2BE84C10703C555
:1052580007FF6300650D05071377F70FEDB788C4DF
:10526800FDA08844B5B7930594000505EFD06FC934
:105278008547E316F5F65545EFE0DFFB630E050EAF
:10528800EDB5884435D997F0FF1FE780405623A431
:1052980004009DB788C441B7B54723109501230181
:1052A800F50083470400194693052400A301F5007F
:1052B8008307840215052303F50083471400A30F11
:1052C800F5FE97F0FF1FE78060C003468400238641
:1052D800C40015C21385440188C89305940097F04B
:1052E800FF1FE780A0BE83A70A00A68503C50700A5
:1052F800EFD00FA771A823A80400F5B79387C19032
:105308009C43E38407DCEFF0BFBC0145EFF01F9836
:105318006DBB2380C40083471400E28513852400F5
:10532800A380F400194697F0FF1FE78020BA0345D1
:1053380084009385FB71050597F0FF1FE780603FA8
:1053480005C5034704009147E31BF7F0C8C483472A
:105358008400930594000505A30FF5FE0346840019
:1053680097F0FF1FE78080B68347840091E70347E3
:1053780004008547E31BF7DE83A70A00E38707DEFF
:10538800034584005105EFD02F93AA84E31605F056
:105398000509130494021379F90F25B3797106D618
:1053A80022D426D24AD04ECE52CC56CA5AC85EC64D
:1053B80071C183473500AA8985C7444195C05945BD
:1053C800EFE05FE7931A850193DA8A410149138A6E
:1053D800C190130B00FDC14B83C73900636DF90001
:1053E800B250225492540259F249624AD24A424B6C
:1053F800B24B456182808387F40063C857078327CF
:105408000A00A5C75145EFD02F8B2A8439CD230038
:105418006501A30005002301750183C7040019462F
:1054280093852400A301F5008387F4001505A306DE
:10543800F50083C71400A30FF5FE97F0FF1FE78060
:10544800E0A883C78400938594001305C400A305CE
:10545800F400194697F0FF1FE78040A783270A004A
:10546800A28503C50700EFD0AF8F0509C1041379E2
:10547800F90F9DB79387C1909C43BDD3EFF05FA50B
:105488002254B25092540259F249624AD24A424BCB
:10549800B24B014545616FF06FFF83C77198A18BCF
:1054A8001385019091E301456FE06FB3411122C468
:1054B80085452A8403C5819006C6EFF05F9783C7A8
:1054C8007198A98BB5C71385815223848190EFE029
:1054D800AFB0138401911C4091C74D45B24022449E
:1054E8004101828003C5819019E10145C5BF9165DD
:1054F8009385B571120597F0FF1FE780802323A8D5
:10550800A19061DD03C6819012068145EFD04F99C5
:10551800104083C681908147FD5513F7F70FE37656
:10552800D7FC1397470032972300B7008507F5B7D4
:10553800014523840190EFE02FAA45BF9387018E90
:10554800884301CD411106C697F0FF1FE780202A46
:10555800B24023A0018E410182808280011122CCB9
:1055680006CE8D472E846310F50603C73500E9473C
:1055780003D545006316F70083D7E1506381A7067A
:10558800EF50E00909C5835764002317F500035756
:10559800A4008356840003566400835544000345E1
:1055A8003400EFE0FF910357440083D7E1506308CC
:1055B800F7008547F24062443E8505618280FD57C9
:1055C8002397F150FDB78967CD07631DF50083C7A1
:1055D800250031476385E7004547E39CE7FCEFE09A
:1055E8008FA6C1BF41677D178147E315E5FC83C6D8
:1055F80055004947E390E6FC83C545000355240060
:10560800300023140100EF40507165B7797122D43E
:105618001384018E1C4006D626D24AD00545BDC348
:105628000D45EFE03FC1AA841145EFE0BFC02A89CC
:105638009305F1011305F041EF30E10D0347F10146
:1056480083C7A150B336F00019C70D478946638454
:10565800E700B336F0001C4036C603C53700938513
:105668004700EFE04FB71040B2462A878348B6009C
:105678000348A6009307460003462600CA852685E8
:10568800EF802037B25022549254025945618280EB
:10569800FD572384F182239A019023AE019023A021
:1056A800019223A201929387415317070000130721
:1056B800A70798C31707000013074733D8C317076E
:1056C80000001307E7F498C797070000938747E996
:1056D80023ACF1908280411126C29384018E9C40B4
:1056E80006C622C49DCB2A840D45EFC0FFDCAA85DF
:1056F80019CD930700FD2300F5008D47A300850011
:105708002301F5009C4003C50700EFC07FE511C4E5
:105718002244B2409244410115B5B2402244924419
:1057280041018280797122D403544500896706D6E5
:1057380026D24AD04ECE52CC13876700631EE402AD
:105748009387018E9C43814489CF18450345070000
:1057580015E10547A380E7000545EF80402A19E9D0
:105768008544B2502254268502599254F249624A1D
:10577800456182808D37EDB713879700636587048D
:1057880003C781829307F00FE30CF7FC1C45114512
:1057980083C40700EFC05FD2AA8579D1930700FDC3
:1057A8002300F50089472301F500F977E1173E94B6
:1057B80013341400A3009500A301850003C581825A
:1057C800EFC01FDA71BFA9078144E31CF4F81389FD
:1057D800018E832709004A8AC9D7184583C4170050
:1057E800854783490700638CF40283C7C150ADFB2A
:1057F8000D45EFC07FCCAA8505C1930700FD2300A6
:10580800F5009147A30035012301F500832709001E
:1058180003C50700EFC0DFD4EFF05FD291B79387DD
:10582800C1919C4391EF0145EFE0DFA02A8611C6A4
:10583800894503C54198EFD06FA583270A00A9A021
:1058480003C60700938617009305F1000545EFE0AE
:105858008F8371D983470500858BF1D70545EFE024
:105868007F9D9307B0032A8463F9A7025D66130638
:105878000670894503C54198130444FCEFD02FB442
:10588800239A8190832709000947A380E70083C7EB
:10589800C15089CB23860150E9B51306006433064D
:1058A800C50271B74E85053D6DBD9387018E9C433A
:1058B800011122CC06CE26CA4AC8454499E783C7B7
:1058C800719813F7570009EB49442285F240624466
:1058D800D2444249056182801387C19118434144EB
:1058E8006DD70347070075D3858BAE842A89D1C34A
:1058F80083C704000547F91793F7F70FE366F7FC2A
:10590800916593857571314597F0FF1FE78060E2D7
:1059180023A0A18E4D4455D923002501A3000500DD
:105928002946A685090597E0FF1FE780205A03C787
:10593800A1508D476317F704EFE06F972C00EF70C5
:1059480000242800EFE04FEB854745452386F150BA
:10595800EFE05F8E1375F50FA386A150014435D58E
:105968005D6613060670914503C54198EFD02FA5D3
:10597800A9BFEFE0BFCB2A84EF40D05AE37AA4F660
:1059880041B7EFF0BFC82A8429D1EFF03FBB35BF3C
:10599800411126C29384018E9C4006C622C495CF2D
:1059A80083C707000D44639BA702894503C5419837
:1059B800EFD0EFA3914503C54198239A0190EFD00A
:1059C8000FA3A38601509C400145A3808700224471
:1059D800B240924441016F80800249442285B2401E
:1059E8002244924441018280411106C68547631FC3
:1059F800F50483D74191B1C303C7C1501DEF130705
:105A0800B0036367F702894503C54198EFD02F9E1D
:105A18009307006403D641913306F602894503C50E
:105A28004198EFD0AF86239A0190B240410182801D
:105A3800938747FC239AF190CDBF9387018E9C43AF
:105A4800EDD7B24003C50700410199B79387018E8E
:105A58009C43E1DF83C77198918BE1DB894503C5DE
:105A68004198EFD0CF98B240239A019041016FF04E
:105A7800FFAC83C77198958BCDC79387C19199E186
:105A8800938741929C43D1CFFD4763EEC70811C26B
:105A9800D9CA411122C426C206C64AC02384A1829B
:105AA800B6843284A1C11389C191032509007D46BA
:105AB80081450505EFC0DFBE03250900A6852286BE
:105AC800050597E0FF1FE7806040832509002285D0
